{
  "_format": "hh-sol-artifact-1",
  "contractName": "Voucher",
  "sourceName": "contracts/Voucher.sol",
  "abi": [
    {
      "inputs": [
        {
          "internalType": "string",
          "name": "name_",
          "type": "string"
        },
        {
          "internalType": "string",
          "name": "symbol_",
          "type": "string"
        },
        {
          "internalType": "uint8",
          "name": "_decimals",
          "type": "uint8"
        }
      ],
      "stateMutability": "nonpayable",
      "type": "constructor"
    },
    {
      "anonymous": false,
      "inputs": [
        {
          "indexed": true,
          "internalType": "address",
          "name": "owner",
          "type": "address"
        },
        {
          "indexed": true,
          "internalType": "address",
          "name": "spender",
          "type": "address"
        },
        {
          "indexed": false,
          "internalType": "uint256",
          "name": "value",
          "type": "uint256"
        }
      ],
      "name": "Approval",
      "type": "event"
    },
    {
      "anonymous": false,
      "inputs": [
        {
          "indexed": true,
          "internalType": "address",
          "name": "previousOwner",
          "type": "address"
        },
        {
          "indexed": true,
          "internalType": "address",
          "name": "newOwner",
          "type": "address"
        }
      ],
      "name": "OwnershipTransferred",
      "type": "event"
    },
    {
      "anonymous": false,
      "inputs": [
        {
          "indexed": false,
          "internalType": "address",
          "name": "account",
          "type": "address"
        }
      ],
      "name": "Paused",
      "type": "event"
    },
    {
      "anonymous": false,
      "inputs": [
        {
          "indexed": true,
          "internalType": "address",
          "name": "from",
          "type": "address"
        },
        {
          "indexed": true,
          "internalType": "address",
          "name": "to",
          "type": "address"
        },
        {
          "indexed": false,
          "internalType": "uint256",
          "name": "value",
          "type": "uint256"
        }
      ],
      "name": "Transfer",
      "type": "event"
    },
    {
      "anonymous": false,
      "inputs": [
        {
          "indexed": false,
          "internalType": "address",
          "name": "account",
          "type": "address"
        }
      ],
      "name": "Unpaused",
      "type": "event"
    },
    {
      "anonymous": false,
      "inputs": [
        {
          "indexed": true,
          "internalType": "address",
          "name": "member",
          "type": "address"
        },
        {
          "indexed": true,
          "internalType": "uint256",
          "name": "oValue",
          "type": "uint256"
        },
        {
          "indexed": true,
          "internalType": "uint256",
          "name": "nValue",
          "type": "uint256"
        }
      ],
      "name": "UpdateValue",
      "type": "event"
    },
    {
      "inputs": [
        {
          "internalType": "address",
          "name": "owner",
          "type": "address"
        },
        {
          "internalType": "address",
          "name": "spender",
          "type": "address"
        }
      ],
      "name": "allowance",
      "outputs": [
        {
          "internalType": "uint256",
          "name": "",
          "type": "uint256"
        }
      ],
      "stateMutability": "view",
      "type": "function"
    },
    {
      "inputs": [
        {
          "internalType": "address",
          "name": "spender",
          "type": "address"
        },
        {
          "internalType": "uint256",
          "name": "amount",
          "type": "uint256"
        }
      ],
      "name": "approve",
      "outputs": [
        {
          "internalType": "bool",
          "name": "",
          "type": "bool"
        }
      ],
      "stateMutability": "nonpayable",
      "type": "function"
    },
    {
      "inputs": [
        {
          "internalType": "address",
          "name": "account",
          "type": "address"
        }
      ],
      "name": "balanceOf",
      "outputs": [
        {
          "internalType": "uint256",
          "name": "",
          "type": "uint256"
        }
      ],
      "stateMutability": "view",
      "type": "function"
    },
    {
      "inputs": [],
      "name": "decimals",
      "outputs": [
        {
          "internalType": "uint8",
          "name": "",
          "type": "uint8"
        }
      ],
      "stateMutability": "view",
      "type": "function"
    },
    {
      "inputs": [
        {
          "internalType": "address",
          "name": "spender",
          "type": "address"
        },
        {
          "internalType": "uint256",
          "name": "subtractedValue",
          "type": "uint256"
        }
      ],
      "name": "decreaseAllowance",
      "outputs": [
        {
          "internalType": "bool",
          "name": "",
          "type": "bool"
        }
      ],
      "stateMutability": "nonpayable",
      "type": "function"
    },
    {
      "inputs": [
        {
          "internalType": "address",
          "name": "spender",
          "type": "address"
        },
        {
          "internalType": "uint256",
          "name": "addedValue",
          "type": "uint256"
        }
      ],
      "name": "increaseAllowance",
      "outputs": [
        {
          "internalType": "bool",
          "name": "",
          "type": "bool"
        }
      ],
      "stateMutability": "nonpayable",
      "type": "function"
    },
    {
      "inputs": [],
      "name": "name",
      "outputs": [
        {
          "internalType": "string",
          "name": "",
          "type": "string"
        }
      ],
      "stateMutability": "view",
      "type": "function"
    },
    {
      "inputs": [
        {
          "internalType": "address",
          "name": "",
          "type": "address"
        }
      ],
      "name": "operators",
      "outputs": [
        {
          "internalType": "bool",
          "name": "",
          "type": "bool"
        }
      ],
      "stateMutability": "view",
      "type": "function"
    },
    {
      "inputs": [],
      "name": "owner",
      "outputs": [
        {
          "internalType": "address",
          "name": "",
          "type": "address"
        }
      ],
      "stateMutability": "view",
      "type": "function"
    },
    {
      "inputs": [],
      "name": "pause",
      "outputs": [],
      "stateMutability": "nonpayable",
      "type": "function"
    },
    {
      "inputs": [],
      "name": "paused",
      "outputs": [
        {
          "internalType": "bool",
          "name": "",
          "type": "bool"
        }
      ],
      "stateMutability": "view",
      "type": "function"
    },
    {
      "inputs": [],
      "name": "renounceOwnership",
      "outputs": [],
      "stateMutability": "nonpayable",
      "type": "function"
    },
    {
      "inputs": [
        {
          "internalType": "address[]",
          "name": "_operators",
          "type": "address[]"
        },
        {
          "internalType": "bool",
          "name": "_isAdded",
          "type": "bool"
        }
      ],
      "name": "setOperator",
      "outputs": [],
      "stateMutability": "nonpayable",
      "type": "function"
    },
    {
      "inputs": [],
      "name": "symbol",
      "outputs": [
        {
          "internalType": "string",
          "name": "",
          "type": "string"
        }
      ],
      "stateMutability": "view",
      "type": "function"
    },
    {
      "inputs": [],
      "name": "totalSupply",
      "outputs": [
        {
          "internalType": "uint256",
          "name": "",
          "type": "uint256"
        }
      ],
      "stateMutability": "view",
      "type": "function"
    },
    {
      "inputs": [
        {
          "internalType": "address",
          "name": "to",
          "type": "address"
        },
        {
          "internalType": "uint256",
          "name": "amount",
          "type": "uint256"
        }
      ],
      "name": "transfer",
      "outputs": [
        {
          "internalType": "bool",
          "name": "",
          "type": "bool"
        }
      ],
      "stateMutability": "nonpayable",
      "type": "function"
    },
    {
      "inputs": [
        {
          "internalType": "address",
          "name": "from",
          "type": "address"
        },
        {
          "internalType": "address",
          "name": "to",
          "type": "address"
        },
        {
          "internalType": "uint256",
          "name": "amount",
          "type": "uint256"
        }
      ],
      "name": "transferFrom",
      "outputs": [
        {
          "internalType": "bool",
          "name": "",
          "type": "bool"
        }
      ],
      "stateMutability": "nonpayable",
      "type": "function"
    },
    {
      "inputs": [
        {
          "internalType": "address",
          "name": "newOwner",
          "type": "address"
        }
      ],
      "name": "transferOwnership",
      "outputs": [],
      "stateMutability": "nonpayable",
      "type": "function"
    },
    {
      "inputs": [],
      "name": "unpause",
      "outputs": [],
      "stateMutability": "nonpayable",
      "type": "function"
    },
    {
      "inputs": [
        {
          "internalType": "address",
          "name": "_account",
          "type": "address"
        },
        {
          "internalType": "uint256",
          "name": "_amount",
          "type": "uint256"
        },
        {
          "internalType": "bool",
          "name": "_isAdded",
          "type": "bool"
        }
      ],
      "name": "updateValue",
      "outputs": [],
      "stateMutability": "nonpayable",
      "type": "function"
    }
  ],
  "bytecode": "0x60a06040523480156200001157600080fd5b506040516200279238038062002792833981810160405281019062000037919062000418565b82828160039080519060200190620000519291906200018d565b5080600490805190602001906200006a9291906200018d565b5050506000600560006101000a81548160ff021916908315150217905550620000a86200009c620000bf60201b60201c565b620000c760201b60201c565b8060ff1660808160ff168152505050505062000517565b600033905090565b6000600560019054906101000a900473ffffffffffffffffffffffffffffffffffffffff16905081600560016101000a81548173ffffffffffffffffffffffffffffffffffffffff021916908373ffffffffffffffffffffffffffffffffffffffff1602179055508173ffffffffffffffffffffffffffffffffffffffff168173ffffffffffffffffffffffffffffffffffffffff167f8be0079c531659141344cd1fd0a4f28419497f9722a3daafe3b4186f6b6457e060405160405180910390a35050565b8280546200019b90620004e1565b90600052602060002090601f016020900481019282620001bf57600085556200020b565b82601f10620001da57805160ff19168380011785556200020b565b828001600101855582156200020b579182015b828111156200020a578251825591602001919060010190620001ed565b5b5090506200021a91906200021e565b5090565b5b80821115620002395760008160009055506001016200021f565b5090565b6000604051905090565b600080fd5b600080fd5b600080fd5b600080fd5b6000601f19601f8301169050919050565b7f4e487b7100000000000000000000000000000000000000000000000000000000600052604160045260246000fd5b620002a6826200025b565b810181811067ffffffffffffffff82111715620002c857620002c76200026c565b5b80604052505050565b6000620002dd6200023d565b9050620002eb82826200029b565b919050565b600067ffffffffffffffff8211156200030e576200030d6200026c565b5b62000319826200025b565b9050602081019050919050565b60005b838110156200034657808201518184015260208101905062000329565b8381111562000356576000848401525b50505050565b6000620003736200036d84620002f0565b620002d1565b90508281526020810184848401111562000392576200039162000256565b5b6200039f84828562000326565b509392505050565b600082601f830112620003bf57620003be62000251565b5b8151620003d18482602086016200035c565b91505092915050565b600060ff82169050919050565b620003f281620003da565b8114620003fe57600080fd5b50565b6000815190506200041281620003e7565b92915050565b60008060006060848603121562000434576200043362000247565b5b600084015167ffffffffffffffff8111156200045557620004546200024c565b5b6200046386828701620003a7565b935050602084015167ffffffffffffffff8111156200048757620004866200024c565b5b6200049586828701620003a7565b9250506040620004a88682870162000401565b9150509250925092565b7f4e487b7100000000000000000000000000000000000000000000000000000000600052602260045260246000fd5b60006002820490506001821680620004fa57607f821691505b60208210811415620005115762000510620004b2565b5b50919050565b60805161225f62000533600039600061059c015261225f6000f3fe608060405234801561001057600080fd5b506004361061012c5760003560e01c806370a08231116100ad57806395d89b411161007157806395d89b411461030d578063a457c2d71461032b578063a9059cbb1461035b578063dd62ed3e1461038b578063f2fde38b146103bb5761012c565b806370a082311461028f578063715018a6146102bf5780637d37eb9d146102c95780638456cb59146102e55780638da5cb5b146102ef5761012c565b806323b872dd116100f457806323b872dd146101e9578063313ce5671461021957806339509351146102375780633f4ba83a146102675780635c975abb146102715761012c565b806306fdde0314610131578063095ea7b31461014f57806313e7c9d81461017f57806318160ddd146101af5780631ed6144e146101cd575b600080fd5b6101396103d7565b604051610146919061155c565b60405180910390f35b6101696004803603810190610164919061161c565b610469565b6040516101769190611677565b60405180910390f35b61019960048036038101906101949190611692565b61048c565b6040516101a69190611677565b60405180910390f35b6101b76104ac565b6040516101c491906116ce565b60405180910390f35b6101e760048036038101906101e2919061177a565b6104b6565b005b61020360048036038101906101fe91906117da565b610569565b6040516102109190611677565b60405180910390f35b610221610598565b60405161022e9190611849565b60405180910390f35b610251600480360381019061024c919061161c565b6105c0565b60405161025e9190611677565b60405180910390f35b61026f6105f7565b005b610279610609565b6040516102869190611677565b60405180910390f35b6102a960048036038101906102a49190611692565b610620565b6040516102b691906116ce565b60405180910390f35b6102c7610668565b005b6102e360048036038101906102de9190611864565b61067c565b005b6102ed610795565b005b6102f76107a7565b60405161030491906118c6565b60405180910390f35b6103156107d1565b604051610322919061155c565b60405180910390f35b6103456004803603810190610340919061161c565b610863565b6040516103529190611677565b60405180910390f35b6103756004803603810190610370919061161c565b6108da565b6040516103829190611677565b60405180910390f35b6103a560048036038101906103a091906118e1565b6108fd565b6040516103b291906116ce565b60405180910390f35b6103d560048036038101906103d09190611692565b610984565b005b6060600380546103e690611950565b80601f016020809104026020016040519081016040528092919081815260200182805461041290611950565b801561045f5780601f106104345761010080835404028352916020019161045f565b820191906000526020600020905b81548152906001019060200180831161044257829003601f168201915b5050505050905090565b600080610474610a08565b9050610481818585610a10565b600191505092915050565b60066020528060005260406000206000915054906101000a900460ff1681565b6000600254905090565b6104be610bdb565b600083839050905060005b818110156105625782600660008787858181106104e9576104e8611982565b5b90506020020160208101906104fe9190611692565b73ffffffffffffffffffffffffffffffffffffffff1673ffffffffffffffffffffffffffffffffffffffff16815260200190815260200160002060006101000a81548160ff021916908315150217905550808061055a906119e0565b9150506104c9565b5050505050565b600080610574610a08565b9050610581858285610c59565b61058c858585610ce5565b60019150509392505050565b60007f0000000000000000000000000000000000000000000000000000000000000000905090565b6000806105cb610a08565b90506105ec8185856105dd85896108fd565b6105e79190611a29565b610a10565b600191505092915050565b6105ff610bdb565b610607610f5d565b565b6000600560009054906101000a900460ff16905090565b60008060008373ffffffffffffffffffffffffffffffffffffffff1673ffffffffffffffffffffffffffffffffffffffff168152602001908152602001600020549050919050565b610670610bdb565b61067a6000610fc0565b565b60066000610688610a08565b73ffffffffffffffffffffffffffffffffffffffff1673ffffffffffffffffffffffffffffffffffffffff16815260200190815260200160002060009054906101000a900460ff1661070f576040517f08c379a000000000000000000000000000000000000000000000000000000000815260040161070690611acb565b60405180910390fd5b600061071a84610620565b905081156107315761072c8484611086565b61073c565b61073b84846111dd565b5b600061074785610620565b905080828673ffffffffffffffffffffffffffffffffffffffff167f61ec51fdd1350b55fc6e153e60509e993f8dcb537fe4318c45a573243d96cab460405160405180910390a45050505050565b61079d610bdb565b6107a56113ab565b565b6000600560019054906101000a900473ffffffffffffffffffffffffffffffffffffffff16905090565b6060600480546107e090611950565b80601f016020809104026020016040519081016040528092919081815260200182805461080c90611950565b80156108595780601f1061082e57610100808354040283529160200191610859565b820191906000526020600020905b81548152906001019060200180831161083c57829003601f168201915b5050505050905090565b60008061086e610a08565b9050600061087c82866108fd565b9050838110156108c1576040517f08c379a00000000000000000000000000000000000000000000000000000000081526004016108b890611b5d565b60405180910390fd5b6108ce8286868403610a10565b60019250505092915050565b6000806108e5610a08565b90506108f2818585610ce5565b600191505092915050565b6000600160008473ffffffffffffffffffffffffffffffffffffffff1673ffffffffffffffffffffffffffffffffffffffff16815260200190815260200160002060008373ffffffffffffffffffffffffffffffffffffffff1673ffffffffffffffffffffffffffffffffffffffff16815260200190815260200160002054905092915050565b61098c610bdb565b600073ffffffffffffffffffffffffffffffffffffffff168173ffffffffffffffffffffffffffffffffffffffff1614156109fc576040517f08c379a00000000000000000000000000000000000000000000000000000000081526004016109f390611bef565b60405180910390fd5b610a0581610fc0565b50565b600033905090565b600073ffffffffffffffffffffffffffffffffffffffff168373ffffffffffffffffffffffffffffffffffffffff161415610a80576040517f08c379a0000000000000000000000000000000000000000000000000000000008152600401610a7790611c81565b60405180910390fd5b600073ffffffffffffffffffffffffffffffffffffffff168273ffffffffffffffffffffffffffffffffffffffff161415610af0576040517f08c379a0000000000000000000000000000000000000000000000000000000008152600401610ae790611d13565b60405180910390fd5b80600160008573ffffffffffffffffffffffffffffffffffffffff1673ffffffffffffffffffffffffffffffffffffffff16815260200190815260200160002060008473ffffffffffffffffffffffffffffffffffffffff1673ffffffffffffffffffffffffffffffffffffffff168152602001908152602001600020819055508173ffffffffffffffffffffffffffffffffffffffff168373ffffffffffffffffffffffffffffffffffffffff167f8c5be1e5ebec7d5bd14f71427d1e84f3dd0314c0f7b2291e5b200ac8c7c3b92583604051610bce91906116ce565b60405180910390a3505050565b610be3610a08565b73ffffffffffffffffffffffffffffffffffffffff16610c016107a7565b73ffffffffffffffffffffffffffffffffffffffff1614610c57576040517f08c379a0000000000000000000000000000000000000000000000000000000008152600401610c4e90611d7f565b60405180910390fd5b565b6000610c6584846108fd565b90507fffffffffffffffffffffffffffffffffffffffffffffffffffffffffffffffff8114610cdf5781811015610cd1576040517f08c379a0000000000000000000000000000000000000000000000000000000008152600401610cc890611deb565b60405180910390fd5b610cde8484848403610a10565b5b50505050565b600073ffffffffffffffffffffffffffffffffffffffff168373ffffffffffffffffffffffffffffffffffffffff161415610d55576040517f08c379a0000000000000000000000000000000000000000000000000000000008152600401610d4c90611e7d565b60405180910390fd5b600073ffffffffffffffffffffffffffffffffffffffff168273ffffffffffffffffffffffffffffffffffffffff161415610dc5576040517f08c379a0000000000000000000000000000000000000000000000000000000008152600401610dbc90611f0f565b60405180910390fd5b610dd083838361140e565b60008060008573ffffffffffffffffffffffffffffffffffffffff1673ffffffffffffffffffffffffffffffffffffffff16815260200190815260200160002054905081811015610e56576040517f08c379a0000000000000000000000000000000000000000000000000000000008152600401610e4d90611fa1565b60405180910390fd5b8181036000808673ffffffffffffffffffffffffffffffffffffffff1673ffffffffffffffffffffffffffffffffffffffff16815260200190815260200160002081905550816000808573ffffffffffffffffffffffffffffffffffffffff1673ffffffffffffffffffffffffffffffffffffffff168152602001908152602001600020600082825401925050819055508273ffffffffffffffffffffffffffffffffffffffff168473ffffffffffffffffffffffffffffffffffffffff167fddf252ad1be2c89b69c2b068fc378daa952ba7f163c4a11628f55a4df523b3ef84604051610f4491906116ce565b60405180910390a3610f57848484611426565b50505050565b610f6561142b565b6000600560006101000a81548160ff0219169083151502179055507f5db9ee0a495bf2e6ff9c91a7834c1ba4fdd244a5e8aa4e537bd38aeae4b073aa610fa9610a08565b604051610fb691906118c6565b60405180910390a1565b6000600560019054906101000a900473ffffffffffffffffffffffffffffffffffffffff16905081600560016101000a81548173ffffffffffffffffffffffffffffffffffffffff021916908373ffffffffffffffffffffffffffffffffffffffff1602179055508173ffffffffffffffffffffffffffffffffffffffff168173ffffffffffffffffffffffffffffffffffffffff167f8be0079c531659141344cd1fd0a4f28419497f9722a3daafe3b4186f6b6457e060405160405180910390a35050565b600073ffffffffffffffffffffffffffffffffffffffff168273ffffffffffffffffffffffffffffffffffffffff1614156110f6576040517f08c379a00000000000000000000000000000000000000000000000000000000081526004016110ed9061200d565b60405180910390fd5b6111026000838361140e565b80600260008282546111149190611a29565b92505081905550806000808473ffffffffffffffffffffffffffffffffffffffff1673ffffffffffffffffffffffffffffffffffffffff168152602001908152602001600020600082825401925050819055508173ffffffffffffffffffffffffffffffffffffffff16600073ffffffffffffffffffffffffffffffffffffffff167fddf252ad1be2c89b69c2b068fc378daa952ba7f163c4a11628f55a4df523b3ef836040516111c591906116ce565b60405180910390a36111d960008383611426565b5050565b600073ffffffffffffffffffffffffffffffffffffffff168273ffffffffffffffffffffffffffffffffffffffff16141561124d576040517f08c379a00000000000000000000000000000000000000000000000000000000081526004016112449061209f565b60405180910390fd5b6112598260008361140e565b60008060008473ffffffffffffffffffffffffffffffffffffffff1673ffffffffffffffffffffffffffffffffffffffff168152602001908152602001600020549050818110156112df576040517f08c379a00000000000000000000000000000000000000000000000000000000081526004016112d690612131565b60405180910390fd5b8181036000808573ffffffffffffffffffffffffffffffffffffffff1673ffffffffffffffffffffffffffffffffffffffff1681526020019081526020016000208190555081600260008282540392505081905550600073ffffffffffffffffffffffffffffffffffffffff168373ffffffffffffffffffffffffffffffffffffffff167fddf252ad1be2c89b69c2b068fc378daa952ba7f163c4a11628f55a4df523b3ef8460405161139291906116ce565b60405180910390a36113a683600084611426565b505050565b6113b3611474565b6001600560006101000a81548160ff0219169083151502179055507f62e78cea01bee320cd4e420270b5ea74000d11b0c9f74754ebdbfc544b05a2586113f7610a08565b60405161140491906118c6565b60405180910390a1565b611416611474565b6114218383836114be565b505050565b505050565b611433610609565b611472576040517f08c379a00000000000000000000000000000000000000000000000000000000081526004016114699061219d565b60405180910390fd5b565b61147c610609565b156114bc576040517f08c379a00000000000000000000000000000000000000000000000000000000081526004016114b390612209565b60405180910390fd5b565b505050565b600081519050919050565b600082825260208201905092915050565b60005b838110156114fd5780820151818401526020810190506114e2565b8381111561150c576000848401525b50505050565b6000601f19601f8301169050919050565b600061152e826114c3565b61153881856114ce565b93506115488185602086016114df565b61155181611512565b840191505092915050565b600060208201905081810360008301526115768184611523565b905092915050565b600080fd5b600080fd5b600073ffffffffffffffffffffffffffffffffffffffff82169050919050565b60006115b382611588565b9050919050565b6115c3816115a8565b81146115ce57600080fd5b50565b6000813590506115e0816115ba565b92915050565b6000819050919050565b6115f9816115e6565b811461160457600080fd5b50565b600081359050611616816115f0565b92915050565b600080604083850312156116335761163261157e565b5b6000611641858286016115d1565b925050602061165285828601611607565b9150509250929050565b60008115159050919050565b6116718161165c565b82525050565b600060208201905061168c6000830184611668565b92915050565b6000602082840312156116a8576116a761157e565b5b60006116b6848285016115d1565b91505092915050565b6116c8816115e6565b82525050565b60006020820190506116e360008301846116bf565b92915050565b600080fd5b600080fd5b600080fd5b60008083601f84011261170e5761170d6116e9565b5b8235905067ffffffffffffffff81111561172b5761172a6116ee565b5b602083019150836020820283011115611747576117466116f3565b5b9250929050565b6117578161165c565b811461176257600080fd5b50565b6000813590506117748161174e565b92915050565b6000806000604084860312156117935761179261157e565b5b600084013567ffffffffffffffff8111156117b1576117b0611583565b5b6117bd868287016116f8565b935093505060206117d086828701611765565b9150509250925092565b6000806000606084860312156117f3576117f261157e565b5b6000611801868287016115d1565b9350506020611812868287016115d1565b925050604061182386828701611607565b9150509250925092565b600060ff82169050919050565b6118438161182d565b82525050565b600060208201905061185e600083018461183a565b92915050565b60008060006060848603121561187d5761187c61157e565b5b600061188b868287016115d1565b935050602061189c86828701611607565b92505060406118ad86828701611765565b9150509250925092565b6118c0816115a8565b82525050565b60006020820190506118db60008301846118b7565b92915050565b600080604083850312156118f8576118f761157e565b5b6000611906858286016115d1565b9250506020611917858286016115d1565b9150509250929050565b7f4e487b7100000000000000000000000000000000000000000000000000000000600052602260045260246000fd5b6000600282049050600182168061196857607f821691505b6020821081141561197c5761197b611921565b5b50919050565b7f4e487b7100000000000000000000000000000000000000000000000000000000600052603260045260246000fd5b7f4e487b7100000000000000000000000000000000000000000000000000000000600052601160045260246000fd5b60006119eb826115e6565b91507fffffffffffffffffffffffffffffffffffffffffffffffffffffffffffffffff821415611a1e57611a1d6119b1565b5b600182019050919050565b6000611a34826115e6565b9150611a3f836115e6565b9250827fffffffffffffffffffffffffffffffffffffffffffffffffffffffffffffffff03821115611a7457611a736119b1565b5b828201905092915050565b7f4f6e6c79204f70657261746f7200000000000000000000000000000000000000600082015250565b6000611ab5600d836114ce565b9150611ac082611a7f565b602082019050919050565b60006020820190508181036000830152611ae481611aa8565b9050919050565b7f45524332303a2064656372656173656420616c6c6f77616e63652062656c6f7760008201527f207a65726f000000000000000000000000000000000000000000000000000000602082015250565b6000611b476025836114ce565b9150611b5282611aeb565b604082019050919050565b60006020820190508181036000830152611b7681611b3a565b9050919050565b7f4f776e61626c653a206e6577206f776e657220697320746865207a65726f206160008201527f6464726573730000000000000000000000000000000000000000000000000000602082015250565b6000611bd96026836114ce565b9150611be482611b7d565b604082019050919050565b60006020820190508181036000830152611c0881611bcc565b9050919050565b7f45524332303a20617070726f76652066726f6d20746865207a65726f2061646460008201527f7265737300000000000000000000000000000000000000000000000000000000602082015250565b6000611c6b6024836114ce565b9150611c7682611c0f565b604082019050919050565b60006020820190508181036000830152611c9a81611c5e565b9050919050565b7f45524332303a20617070726f766520746f20746865207a65726f20616464726560008201527f7373000000000000000000000000000000000000000000000000000000000000602082015250565b6000611cfd6022836114ce565b9150611d0882611ca1565b604082019050919050565b60006020820190508181036000830152611d2c81611cf0565b9050919050565b7f4f776e61626c653a2063616c6c6572206973206e6f7420746865206f776e6572600082015250565b6000611d696020836114ce565b9150611d7482611d33565b602082019050919050565b60006020820190508181036000830152611d9881611d5c565b9050919050565b7f45524332303a20696e73756666696369656e7420616c6c6f77616e6365000000600082015250565b6000611dd5601d836114ce565b9150611de082611d9f565b602082019050919050565b60006020820190508181036000830152611e0481611dc8565b9050919050565b7f45524332303a207472616e736665722066726f6d20746865207a65726f20616460008201527f6472657373000000000000000000000000000000000000000000000000000000602082015250565b6000611e676025836114ce565b9150611e7282611e0b565b604082019050919050565b60006020820190508181036000830152611e9681611e5a565b9050919050565b7f45524332303a207472616e7366657220746f20746865207a65726f206164647260008201527f6573730000000000000000000000000000000000000000000000000000000000602082015250565b6000611ef96023836114ce565b9150611f0482611e9d565b604082019050919050565b60006020820190508181036000830152611f2881611eec565b9050919050565b7f45524332303a207472616e7366657220616d6f756e742065786365656473206260008201527f616c616e63650000000000000000000000000000000000000000000000000000602082015250565b6000611f8b6026836114ce565b9150611f9682611f2f565b604082019050919050565b60006020820190508181036000830152611fba81611f7e565b9050919050565b7f45524332303a206d696e7420746f20746865207a65726f206164647265737300600082015250565b6000611ff7601f836114ce565b915061200282611fc1565b602082019050919050565b6000602082019050818103600083015261202681611fea565b9050919050565b7f45524332303a206275726e2066726f6d20746865207a65726f2061646472657360008201527f7300000000000000000000000000000000000000000000000000000000000000602082015250565b60006120896021836114ce565b91506120948261202d565b604082019050919050565b600060208201905081810360008301526120b88161207c565b9050919050565b7f45524332303a206275726e20616d6f756e7420657863656564732062616c616e60008201527f6365000000000000000000000000000000000000000000000000000000000000602082015250565b600061211b6022836114ce565b9150612126826120bf565b604082019050919050565b6000602082019050818103600083015261214a8161210e565b9050919050565b7f5061757361626c653a206e6f7420706175736564000000000000000000000000600082015250565b60006121876014836114ce565b915061219282612151565b602082019050919050565b600060208201905081810360008301526121b68161217a565b9050919050565b7f5061757361626c653a2070617573656400000000000000000000000000000000600082015250565b60006121f36010836114ce565b91506121fe826121bd565b602082019050919050565b60006020820190508181036000830152612222816121e6565b905091905056fea2646970667358221220bfd517e00d107a8ce5674d1e471491a4ad9cef5eae0810af6d0ad8e662c4cbe064736f6c63430008090033",
  "linkReferences": {},
  "deployedLinkReferences": {}
}