{
  "_format": "hh-sol-artifact-1",
  "contractName": "Periphery2",
  "sourceName": "contracts/Periphery2.sol",
  "abi": [
    {
      "inputs": [
        {
          "internalType": "contract IPeriphery",
          "name": "_periphery",
          "type": "address"
        }
      ],
      "stateMutability": "nonpayable",
      "type": "constructor"
    },
    {
      "anonymous": false,
      "inputs": [
        {
          "indexed": true,
          "internalType": "address",
          "name": "previousOwner",
          "type": "address"
        },
        {
          "indexed": true,
          "internalType": "address",
          "name": "newOwner",
          "type": "address"
        }
      ],
      "name": "OwnershipTransferred",
      "type": "event"
    },
    {
      "anonymous": false,
      "inputs": [
        {
          "indexed": false,
          "internalType": "uint256",
          "name": "eventId",
          "type": "uint256"
        },
        {
          "indexed": true,
          "internalType": "address",
          "name": "caller",
          "type": "address"
        },
        {
          "indexed": true,
          "internalType": "address",
          "name": "bMembership",
          "type": "address"
        },
        {
          "indexed": true,
          "internalType": "address",
          "name": "qMembership",
          "type": "address"
        },
        {
          "indexed": false,
          "internalType": "uint256",
          "name": "bAmount",
          "type": "uint256"
        },
        {
          "indexed": false,
          "internalType": "uint256",
          "name": "qAmount",
          "type": "uint256"
        }
      ],
      "name": "Swap",
      "type": "event"
    },
    {
      "inputs": [
        {
          "internalType": "uint256",
          "name": "_eventId",
          "type": "uint256"
        },
        {
          "internalType": "uint256",
          "name": "_end",
          "type": "uint256"
        }
      ],
      "name": "adjust",
      "outputs": [],
      "stateMutability": "nonpayable",
      "type": "function"
    },
    {
      "inputs": [
        {
          "internalType": "address",
          "name": "_bMembership",
          "type": "address"
        },
        {
          "internalType": "address",
          "name": "_qMembership",
          "type": "address"
        }
      ],
      "name": "globalRate",
      "outputs": [
        {
          "components": [
            {
              "internalType": "uint256",
              "name": "bValue",
              "type": "uint256"
            },
            {
              "internalType": "uint256",
              "name": "qValue",
              "type": "uint256"
            }
          ],
          "internalType": "struct Periphery2.XRate",
          "name": "",
          "type": "tuple"
        }
      ],
      "stateMutability": "view",
      "type": "function"
    },
    {
      "inputs": [],
      "name": "owner",
      "outputs": [
        {
          "internalType": "address",
          "name": "",
          "type": "address"
        }
      ],
      "stateMutability": "view",
      "type": "function"
    },
    {
      "inputs": [],
      "name": "periphery",
      "outputs": [
        {
          "internalType": "contract IPeriphery",
          "name": "",
          "type": "address"
        }
      ],
      "stateMutability": "view",
      "type": "function"
    },
    {
      "inputs": [
        {
          "internalType": "address",
          "name": "_bMembership",
          "type": "address"
        },
        {
          "internalType": "uint256",
          "name": "_bMemberId",
          "type": "uint256"
        },
        {
          "internalType": "address",
          "name": "_qMembership",
          "type": "address"
        },
        {
          "internalType": "uint256",
          "name": "_qMemberId",
          "type": "uint256"
        },
        {
          "internalType": "uint256",
          "name": "_bAmount",
          "type": "uint256"
        }
      ],
      "name": "regularSwap",
      "outputs": [],
      "stateMutability": "nonpayable",
      "type": "function"
    },
    {
      "inputs": [],
      "name": "renounceOwnership",
      "outputs": [],
      "stateMutability": "nonpayable",
      "type": "function"
    },
    {
      "inputs": [
        {
          "internalType": "uint256",
          "name": "_eventId",
          "type": "uint256"
        }
      ],
      "name": "schedule",
      "outputs": [
        {
          "components": [
            {
              "internalType": "uint256",
              "name": "start",
              "type": "uint256"
            },
            {
              "internalType": "uint256",
              "name": "end",
              "type": "uint256"
            }
          ],
          "internalType": "struct Periphery2.Schedule",
          "name": "",
          "type": "tuple"
        }
      ],
      "stateMutability": "view",
      "type": "function"
    },
    {
      "inputs": [
        {
          "internalType": "uint256",
          "name": "_eventId",
          "type": "uint256"
        },
        {
          "internalType": "uint256",
          "name": "_start",
          "type": "uint256"
        },
        {
          "internalType": "uint256",
          "name": "_end",
          "type": "uint256"
        }
      ],
      "name": "setSchedule",
      "outputs": [],
      "stateMutability": "nonpayable",
      "type": "function"
    },
    {
      "inputs": [
        {
          "internalType": "uint256",
          "name": "_eventId",
          "type": "uint256"
        },
        {
          "internalType": "address[]",
          "name": "_baseMemberships",
          "type": "address[]"
        },
        {
          "internalType": "address[]",
          "name": "_quoteMemberships",
          "type": "address[]"
        },
        {
          "internalType": "uint256[]",
          "name": "_baseValues",
          "type": "uint256[]"
        },
        {
          "internalType": "uint256[]",
          "name": "_quoteValues",
          "type": "uint256[]"
        }
      ],
      "name": "setXRate",
      "outputs": [],
      "stateMutability": "nonpayable",
      "type": "function"
    },
    {
      "inputs": [
        {
          "internalType": "uint256",
          "name": "_eventId",
          "type": "uint256"
        },
        {
          "internalType": "address",
          "name": "_bMembership",
          "type": "address"
        },
        {
          "internalType": "address",
          "name": "_qMembership",
          "type": "address"
        }
      ],
      "name": "specialRate",
      "outputs": [
        {
          "components": [
            {
              "internalType": "uint256",
              "name": "bValue",
              "type": "uint256"
            },
            {
              "internalType": "uint256",
              "name": "qValue",
              "type": "uint256"
            }
          ],
          "internalType": "struct Periphery2.XRate",
          "name": "",
          "type": "tuple"
        }
      ],
      "stateMutability": "view",
      "type": "function"
    },
    {
      "inputs": [
        {
          "internalType": "uint256",
          "name": "_eventId",
          "type": "uint256"
        },
        {
          "internalType": "address",
          "name": "_bMembership",
          "type": "address"
        },
        {
          "internalType": "uint256",
          "name": "_bMemberId",
          "type": "uint256"
        },
        {
          "internalType": "address",
          "name": "_qMembership",
          "type": "address"
        },
        {
          "internalType": "uint256",
          "name": "_qMemberId",
          "type": "uint256"
        },
        {
          "internalType": "uint256",
          "name": "_bAmount",
          "type": "uint256"
        }
      ],
      "name": "specialSwap",
      "outputs": [],
      "stateMutability": "nonpayable",
      "type": "function"
    },
    {
      "inputs": [
        {
          "internalType": "address",
          "name": "newOwner",
          "type": "address"
        }
      ],
      "name": "transferOwnership",
      "outputs": [],
      "stateMutability": "nonpayable",
      "type": "function"
    }
  ],
  "bytecode": "0x60806040523480156200001157600080fd5b5060405162002623380380620026238339818101604052810190620000379190620001e9565b620000576200004b6200009f60201b60201c565b620000a760201b60201c565b80600160006101000a81548173ffffffffffffffffffffffffffffffffffffffff021916908373ffffffffffffffffffffffffffffffffffffffff160217905550506200021b565b600033905090565b60008060009054906101000a900473ffffffffffffffffffffffffffffffffffffffff169050816000806101000a81548173ffffffffffffffffffffffffffffffffffffffff021916908373ffffffffffffffffffffffffffffffffffffffff1602179055508173ffffffffffffffffffffffffffffffffffffffff168173ffffffffffffffffffffffffffffffffffffffff167f8be0079c531659141344cd1fd0a4f28419497f9722a3daafe3b4186f6b6457e060405160405180910390a35050565b600080fd5b600073ffffffffffffffffffffffffffffffffffffffff82169050919050565b60006200019d8262000170565b9050919050565b6000620001b18262000190565b9050919050565b620001c381620001a4565b8114620001cf57600080fd5b50565b600081519050620001e381620001b8565b92915050565b6000602082840312156200020257620002016200016b565b5b60006200021284828501620001d2565b91505092915050565b6123f8806200022b6000396000f3fe608060405234801561001057600080fd5b50600436106100b45760003560e01c8063715018a611610071578063715018a61461018957806377aace1a146101935780638da5cb5b146101b1578063af104c7c146101cf578063eeacaef7146101eb578063f2fde38b1461021b576100b4565b8063064e9b0a146100b957806317d2bea4146100d55780633417400f146100f15780633c590ad314610121578063418ce7d61461013d5780636fbfd40914610159575b600080fd5b6100d360048036038101906100ce919061171d565b610237565b005b6100ef60048036038101906100ea91906117aa565b6102b8565b005b61010b600480360381019061010691906117ea565b610373565b604051610118919061187b565b60405180910390f35b61013b60048036038101906101369190611951565b610480565b005b61015760048036038101906101529190611a4d565b61052e565b005b610173600480360381019061016e9190611aa0565b610614565b6040516101809190611afc565b60405180910390f35b610191610655565b005b61019b610669565b6040516101a89190611b76565b60405180910390f35b6101b961068f565b6040516101c69190611ba0565b60405180910390f35b6101e960048036038101906101e49190611bbb565b6106b8565b005b61020560048036038101906102009190611c36565b6106ce565b604051610212919061187b565b60405180910390f35b61023560048036038101906102309190611c76565b610779565b005b6000429050600061024788610614565b905081816000015111158015610261575080602001518211155b6102a0576040517f08c379a000000000000000000000000000000000000000000000000000000000815260040161029790611d26565b60405180910390fd5b6102ae8888888888886107fd565b5050505050505050565b6102c0610d05565b600042905060006004600085815260200190815260200160002060405180604001604052908160008201548152602001600182015481525050905060008160000151141580156103135750806020015182105b610352576040517f08c379a000000000000000000000000000000000000000000000000000000000815260040161034990611d92565b60405180910390fd5b82600460008681526020019081526020016000206001018190555050505050565b61037b61164b565b600061038685610614565b6000015114156103cb576040517f08c379a00000000000000000000000000000000000000000000000000000000081526004016103c290611dfe565b60405180910390fd5b6003600085815260200190815260200160002060008473ffffffffffffffffffffffffffffffffffffffff1673ffffffffffffffffffffffffffffffffffffffff16815260200190815260200160002060008373ffffffffffffffffffffffffffffffffffffffff1673ffffffffffffffffffffffffffffffffffffffff1681526020019081526020016000206040518060400160405290816000820154815260200160018201548152505090509392505050565b610488610d05565b600088889050905080858590501480156104a457508087879050145b80156104b257508083839050145b6104f1576040517f08c379a00000000000000000000000000000000000000000000000000000000081526004016104e890611e6a565b60405180910390fd5b60008a146105105761050b818b8b8b8b8b8b8b8b8b610d83565b610522565b610521818a8a8a8a8a8a8a8a6111ee565b5b50505050505050505050565b610536610d05565b6000429050600061054685610614565b600001511461058a576040517f08c379a000000000000000000000000000000000000000000000000000000000815260040161058190611ed6565b60405180910390fd5b80831015801561059957508183105b6105d8576040517f08c379a00000000000000000000000000000000000000000000000000000000081526004016105cf90611f42565b60405180910390fd5b82600460008681526020019081526020016000206000018190555081600460008681526020019081526020016000206001018190555050505050565b61061c611665565b60046000838152602001908152602001600020604051806040016040529081600082015481526020016001820154815250509050919050565b61065d610d05565b610667600061157f565b565b600160009054906101000a900473ffffffffffffffffffffffffffffffffffffffff1681565b60008060009054906101000a900473ffffffffffffffffffffffffffffffffffffffff16905090565b6106c7600086868686866107fd565b5050505050565b6106d661164b565b600260008473ffffffffffffffffffffffffffffffffffffffff1673ffffffffffffffffffffffffffffffffffffffff16815260200190815260200160002060008373ffffffffffffffffffffffffffffffffffffffff1673ffffffffffffffffffffffffffffffffffffffff16815260200190815260200160002060405180604001604052908160008201548152602001600182015481525050905092915050565b610781610d05565b600073ffffffffffffffffffffffffffffffffffffffff168173ffffffffffffffffffffffffffffffffffffffff1614156107f1576040517f08c379a00000000000000000000000000000000000000000000000000000000081526004016107e890611fd4565b60405180910390fd5b6107fa8161157f565b50565b60003390508073ffffffffffffffffffffffffffffffffffffffff168673ffffffffffffffffffffffffffffffffffffffff16636352211e876040518263ffffffff1660e01b81526004016108529190612003565b60206040518083038186803b15801561086a57600080fd5b505afa15801561087e573d6000803e3d6000fd5b505050506040513d601f19601f820116820180604052508101906108a29190612033565b73ffffffffffffffffffffffffffffffffffffffff1614801561097857508073ffffffffffffffffffffffffffffffffffffffff168473ffffffffffffffffffffffffffffffffffffffff16636352211e856040518263ffffffff1660e01b81526004016109109190612003565b60206040518083038186803b15801561092857600080fd5b505afa15801561093c573d6000803e3d6000fd5b505050506040513d601f19601f820116820180604052508101906109609190612033565b73ffffffffffffffffffffffffffffffffffffffff16145b6109b7576040517f08c379a00000000000000000000000000000000000000000000000000000000081526004016109ae906120ac565b60405180910390fd5b6109bf61164b565b600088146109d9576109d2888887610373565b90506109e6565b6109e387866106ce565b90505b6000816000015114158015610a0057506000816020015114155b610a3f576040517f08c379a0000000000000000000000000000000000000000000000000000000008152600401610a3690612118565b60405180910390fd5b60008160000151826020015185610a569190612167565b610a6091906121f0565b90506000600160009054906101000a900473ffffffffffffffffffffffffffffffffffffffff1690508073ffffffffffffffffffffffffffffffffffffffff166309af7d868a6040518263ffffffff1660e01b8152600401610ac29190611ba0565b60206040518083038186803b158015610ada57600080fd5b505afa158015610aee573d6000803e3d6000fd5b505050506040513d601f19601f82011682018060405250810190610b129190612033565b73ffffffffffffffffffffffffffffffffffffffff166328a01367858760006040518463ffffffff1660e01b8152600401610b4f9392919061223c565b600060405180830381600087803b158015610b6957600080fd5b505af1158015610b7d573d6000803e3d6000fd5b505050508073ffffffffffffffffffffffffffffffffffffffff166309af7d86886040518263ffffffff1660e01b8152600401610bba9190611ba0565b60206040518083038186803b158015610bd257600080fd5b505afa158015610be6573d6000803e3d6000fd5b505050506040513d601f19601f82011682018060405250810190610c0a9190612033565b73ffffffffffffffffffffffffffffffffffffffff166328a01367858460016040518463ffffffff1660e01b8152600401610c479392919061223c565b600060405180830381600087803b158015610c6157600080fd5b505af1158015610c75573d6000803e3d6000fd5b505050508673ffffffffffffffffffffffffffffffffffffffff168973ffffffffffffffffffffffffffffffffffffffff168573ffffffffffffffffffffffffffffffffffffffff167f435aa1cca6b5602db6dbb46b76b62825800dec85b04104844114804bcd2a1d3b8d8987604051610cf193929190612273565b60405180910390a450505050505050505050565b610d0d611643565b73ffffffffffffffffffffffffffffffffffffffff16610d2b61068f565b73ffffffffffffffffffffffffffffffffffffffff1614610d81576040517f08c379a0000000000000000000000000000000000000000000000000000000008152600401610d78906122f6565b60405180910390fd5b565b60004290506000600460008c81526020019081526020016000206040518060400160405290816000820154815260200160018201548152505090506000816000015114158015610dd7575080602001518211155b610e16576040517f08c379a0000000000000000000000000000000000000000000000000000000008152600401610e0d90611d92565b60405180910390fd5b505060008060005b8c6002610e2b9190612167565b8110156111df578c811015610fef578a8a82818110610e4d57610e4c612316565b5b9050602002016020810190610e629190611c76565b9250888882818110610e7757610e76612316565b5b9050602002016020810190610e8c9190611c76565b9150868682818110610ea157610ea0612316565b5b90506020020135600360008e815260200190815260200160002060008573ffffffffffffffffffffffffffffffffffffffff1673ffffffffffffffffffffffffffffffffffffffff16815260200190815260200160002060008473ffffffffffffffffffffffffffffffffffffffff1673ffffffffffffffffffffffffffffffffffffffff16815260200190815260200160002060000181905550848482818110610f4f57610f4e612316565b5b90506020020135600360008e815260200190815260200160002060008573ffffffffffffffffffffffffffffffffffffffff1673ffffffffffffffffffffffffffffffffffffffff16815260200190815260200160002060008473ffffffffffffffffffffffffffffffffffffffff1673ffffffffffffffffffffffffffffffffffffffff168152602001908152602001600020600101819055506111cc565b8a8a8e83610ffd9190612345565b81811061100d5761100c612316565b5b90506020020160208101906110229190611c76565b925088888e836110329190612345565b81811061104257611041612316565b5b90506020020160208101906110579190611c76565b915084848e836110679190612345565b81811061107757611076612316565b5b90506020020135600360008e815260200190815260200160002060008473ffffffffffffffffffffffffffffffffffffffff1673ffffffffffffffffffffffffffffffffffffffff16815260200190815260200160002060008573ffffffffffffffffffffffffffffffffffffffff1673ffffffffffffffffffffffffffffffffffffffff1681526020019081526020016000206000018190555086868e836111209190612345565b8181106111305761112f612316565b5b90506020020135600360008e815260200190815260200160002060008473ffffffffffffffffffffffffffffffffffffffff1673ffffffffffffffffffffffffffffffffffffffff16815260200190815260200160002060008573ffffffffffffffffffffffffffffffffffffffff1673ffffffffffffffffffffffffffffffffffffffff168152602001908152602001600020600101819055505b80806111d790612379565b915050610e1e565b50505050505050505050505050565b60008060005b8b60026112019190612167565b811015611571578b8110156113a3578a8a8281811061122357611222612316565b5b90506020020160208101906112389190611c76565b925088888281811061124d5761124c612316565b5b90506020020160208101906112629190611c76565b915086868281811061127757611276612316565b5b90506020020135600260008573ffffffffffffffffffffffffffffffffffffffff1673ffffffffffffffffffffffffffffffffffffffff16815260200190815260200160002060008473ffffffffffffffffffffffffffffffffffffffff1673ffffffffffffffffffffffffffffffffffffffff1681526020019081526020016000206000018190555084848281811061131457611313612316565b5b90506020020135600260008573ffffffffffffffffffffffffffffffffffffffff1673ffffffffffffffffffffffffffffffffffffffff16815260200190815260200160002060008473ffffffffffffffffffffffffffffffffffffffff1673ffffffffffffffffffffffffffffffffffffffff1681526020019081526020016000206001018190555061155e565b8a8a8d836113b19190612345565b8181106113c1576113c0612316565b5b90506020020160208101906113d69190611c76565b925088888d836113e69190612345565b8181106113f6576113f5612316565b5b905060200201602081019061140b9190611c76565b915084848d8361141b9190612345565b81811061142b5761142a612316565b5b90506020020135600260008473ffffffffffffffffffffffffffffffffffffffff1673ffffffffffffffffffffffffffffffffffffffff16815260200190815260200160002060008573ffffffffffffffffffffffffffffffffffffffff1673ffffffffffffffffffffffffffffffffffffffff1681526020019081526020016000206000018190555086868d836114c39190612345565b8181106114d3576114d2612316565b5b90506020020135600260008473ffffffffffffffffffffffffffffffffffffffff1673ffffffffffffffffffffffffffffffffffffffff16815260200190815260200160002060008573ffffffffffffffffffffffffffffffffffffffff1673ffffffffffffffffffffffffffffffffffffffff168152602001908152602001600020600101819055505b808061156990612379565b9150506111f4565b505050505050505050505050565b60008060009054906101000a900473ffffffffffffffffffffffffffffffffffffffff169050816000806101000a81548173ffffffffffffffffffffffffffffffffffffffff021916908373ffffffffffffffffffffffffffffffffffffffff1602179055508173ffffffffffffffffffffffffffffffffffffffff168173ffffffffffffffffffffffffffffffffffffffff167f8be0079c531659141344cd1fd0a4f28419497f9722a3daafe3b4186f6b6457e060405160405180910390a35050565b600033905090565b604051806040016040528060008152602001600081525090565b604051806040016040528060008152602001600081525090565b600080fd5b600080fd5b6000819050919050565b61169c81611689565b81146116a757600080fd5b50565b6000813590506116b981611693565b92915050565b600073ffffffffffffffffffffffffffffffffffffffff82169050919050565b60006116ea826116bf565b9050919050565b6116fa816116df565b811461170557600080fd5b50565b600081359050611717816116f1565b92915050565b60008060008060008060c0878903121561173a5761173961167f565b5b600061174889828a016116aa565b965050602061175989828a01611708565b955050604061176a89828a016116aa565b945050606061177b89828a01611708565b935050608061178c89828a016116aa565b92505060a061179d89828a016116aa565b9150509295509295509295565b600080604083850312156117c1576117c061167f565b5b60006117cf858286016116aa565b92505060206117e0858286016116aa565b9150509250929050565b6000806000606084860312156118035761180261167f565b5b6000611811868287016116aa565b935050602061182286828701611708565b925050604061183386828701611708565b9150509250925092565b61184681611689565b82525050565b604082016000820151611862600085018261183d565b506020820151611875602085018261183d565b50505050565b6000604082019050611890600083018461184c565b92915050565b600080fd5b600080fd5b600080fd5b60008083601f8401126118bb576118ba611896565b5b8235905067ffffffffffffffff8111156118d8576118d761189b565b5b6020830191508360208202830111156118f4576118f36118a0565b5b9250929050565b60008083601f84011261191157611910611896565b5b8235905067ffffffffffffffff81111561192e5761192d61189b565b5b60208301915083602082028301111561194a576119496118a0565b5b9250929050565b600080600080600080600080600060a08a8c0312156119735761197261167f565b5b60006119818c828d016116aa565b99505060208a013567ffffffffffffffff8111156119a2576119a1611684565b5b6119ae8c828d016118a5565b985098505060408a013567ffffffffffffffff8111156119d1576119d0611684565b5b6119dd8c828d016118a5565b965096505060608a013567ffffffffffffffff811115611a00576119ff611684565b5b611a0c8c828d016118fb565b945094505060808a013567ffffffffffffffff811115611a2f57611a2e611684565b5b611a3b8c828d016118fb565b92509250509295985092959850929598565b600080600060608486031215611a6657611a6561167f565b5b6000611a74868287016116aa565b9350506020611a85868287016116aa565b9250506040611a96868287016116aa565b9150509250925092565b600060208284031215611ab657611ab561167f565b5b6000611ac4848285016116aa565b91505092915050565b604082016000820151611ae3600085018261183d565b506020820151611af6602085018261183d565b50505050565b6000604082019050611b116000830184611acd565b92915050565b6000819050919050565b6000611b3c611b37611b32846116bf565b611b17565b6116bf565b9050919050565b6000611b4e82611b21565b9050919050565b6000611b6082611b43565b9050919050565b611b7081611b55565b82525050565b6000602082019050611b8b6000830184611b67565b92915050565b611b9a816116df565b82525050565b6000602082019050611bb56000830184611b91565b92915050565b600080600080600060a08688031215611bd757611bd661167f565b5b6000611be588828901611708565b9550506020611bf6888289016116aa565b9450506040611c0788828901611708565b9350506060611c18888289016116aa565b9250506080611c29888289016116aa565b9150509295509295909350565b60008060408385031215611c4d57611c4c61167f565b5b6000611c5b85828601611708565b9250506020611c6c85828601611708565b9150509250929050565b600060208284031215611c8c57611c8b61167f565b5b6000611c9a84828501611708565b91505092915050565b600082825260208201905092915050565b7f4576656e74206e6f74207965742073746172746564206f7220616c726561647960008201527f20656e6465640000000000000000000000000000000000000000000000000000602082015250565b6000611d10602683611ca3565b9150611d1b82611cb4565b604082019050919050565b60006020820190508181036000830152611d3f81611d03565b9050919050565b7f496e76616c696420726571756573740000000000000000000000000000000000600082015250565b6000611d7c600f83611ca3565b9150611d8782611d46565b602082019050919050565b60006020820190508181036000830152611dab81611d6f565b9050919050565b7f4576656e744964206e6f74206578697374730000000000000000000000000000600082015250565b6000611de8601283611ca3565b9150611df382611db2565b602082019050919050565b60006020820190508181036000830152611e1781611ddb565b9050919050565b7f496e76616c6964206c656e677468000000000000000000000000000000000000600082015250565b6000611e54600e83611ca3565b9150611e5f82611e1e565b602082019050919050565b60006020820190508181036000830152611e8381611e47565b9050919050565b7f4576656e74496420657869737473000000000000000000000000000000000000600082015250565b6000611ec0600e83611ca3565b9150611ecb82611e8a565b602082019050919050565b60006020820190508181036000830152611eef81611eb3565b9050919050565b7f496e76616c6964207363686564756c6500000000000000000000000000000000600082015250565b6000611f2c601083611ca3565b9150611f3782611ef6565b602082019050919050565b60006020820190508181036000830152611f5b81611f1f565b9050919050565b7f4f776e61626c653a206e6577206f776e657220697320746865207a65726f206160008201527f6464726573730000000000000000000000000000000000000000000000000000602082015250565b6000611fbe602683611ca3565b9150611fc982611f62565b604082019050919050565b60006020820190508181036000830152611fed81611fb1565b9050919050565b611ffd81611689565b82525050565b60006020820190506120186000830184611ff4565b92915050565b60008151905061202d816116f1565b92915050565b6000602082840312156120495761204861167f565b5b60006120578482850161201e565b91505092915050565b7f4d656d6265727368697073206e6f74207265636f726465640000000000000000600082015250565b6000612096601883611ca3565b91506120a182612060565b602082019050919050565b600060208201905081810360008301526120c581612089565b9050919050565b7f556e737570706f7274207377617070696e672074686520706169720000000000600082015250565b6000612102601b83611ca3565b915061210d826120cc565b602082019050919050565b60006020820190508181036000830152612131816120f5565b9050919050565b7f4e487b7100000000000000000000000000000000000000000000000000000000600052601160045260246000fd5b600061217282611689565b915061217d83611689565b9250817fffffffffffffffffffffffffffffffffffffffffffffffffffffffffffffffff04831182151516156121b6576121b5612138565b5b828202905092915050565b7f4e487b7100000000000000000000000000000000000000000000000000000000600052601260045260246000fd5b60006121fb82611689565b915061220683611689565b925082612216576122156121c1565b5b828204905092915050565b60008115159050919050565b61223681612221565b82525050565b60006060820190506122516000830186611b91565b61225e6020830185611ff4565b61226b604083018461222d565b949350505050565b60006060820190506122886000830186611ff4565b6122956020830185611ff4565b6122a26040830184611ff4565b949350505050565b7f4f776e61626c653a2063616c6c6572206973206e6f7420746865206f776e6572600082015250565b60006122e0602083611ca3565b91506122eb826122aa565b602082019050919050565b6000602082019050818103600083015261230f816122d3565b9050919050565b7f4e487b7100000000000000000000000000000000000000000000000000000000600052603260045260246000fd5b600061235082611689565b915061235b83611689565b92508282101561236e5761236d612138565b5b828203905092915050565b600061238482611689565b91507fffffffffffffffffffffffffffffffffffffffffffffffffffffffffffffffff8214156123b7576123b6612138565b5b60018201905091905056fea264697066735822122050121cf819ddc1d56e66af34b647ed66acb63c1aa9b18d21f3cbf3afa6f989f664736f6c63430008090033",
  "linkReferences": {},
  "deployedLinkReferences": {}
}