{
  "_format": "hh-sol-artifact-1",
  "contractName": "Membership",
  "sourceName": "contracts/Membership.sol",
  "abi": [
    {
      "inputs": [
        {
          "internalType": "string",
          "name": "name",
          "type": "string"
        },
        {
          "internalType": "string",
          "name": "symbol",
          "type": "string"
        },
        {
          "internalType": "string",
          "name": "baseURI_",
          "type": "string"
        }
      ],
      "stateMutability": "nonpayable",
      "type": "constructor"
    },
    {
      "anonymous": false,
      "inputs": [
        {
          "indexed": true,
          "internalType": "address",
          "name": "owner",
          "type": "address"
        },
        {
          "indexed": true,
          "internalType": "address",
          "name": "approved",
          "type": "address"
        },
        {
          "indexed": true,
          "internalType": "uint256",
          "name": "tokenId",
          "type": "uint256"
        }
      ],
      "name": "Approval",
      "type": "event"
    },
    {
      "anonymous": false,
      "inputs": [
        {
          "indexed": true,
          "internalType": "address",
          "name": "owner",
          "type": "address"
        },
        {
          "indexed": true,
          "internalType": "address",
          "name": "operator",
          "type": "address"
        },
        {
          "indexed": false,
          "internalType": "bool",
          "name": "approved",
          "type": "bool"
        }
      ],
      "name": "ApprovalForAll",
      "type": "event"
    },
    {
      "anonymous": false,
      "inputs": [
        {
          "indexed": true,
          "internalType": "uint256",
          "name": "memberId",
          "type": "uint256"
        }
      ],
      "name": "Cancel",
      "type": "event"
    },
    {
      "anonymous": false,
      "inputs": [
        {
          "indexed": true,
          "internalType": "address",
          "name": "previousOwner",
          "type": "address"
        },
        {
          "indexed": true,
          "internalType": "address",
          "name": "newOwner",
          "type": "address"
        }
      ],
      "name": "OwnershipTransferred",
      "type": "event"
    },
    {
      "anonymous": false,
      "inputs": [
        {
          "indexed": false,
          "internalType": "address",
          "name": "account",
          "type": "address"
        }
      ],
      "name": "Paused",
      "type": "event"
    },
    {
      "anonymous": false,
      "inputs": [
        {
          "indexed": true,
          "internalType": "address",
          "name": "member",
          "type": "address"
        },
        {
          "indexed": true,
          "internalType": "uint256",
          "name": "memberId",
          "type": "uint256"
        }
      ],
      "name": "Registration",
      "type": "event"
    },
    {
      "anonymous": false,
      "inputs": [
        {
          "indexed": true,
          "internalType": "address",
          "name": "from",
          "type": "address"
        },
        {
          "indexed": true,
          "internalType": "address",
          "name": "to",
          "type": "address"
        },
        {
          "indexed": true,
          "internalType": "uint256",
          "name": "tokenId",
          "type": "uint256"
        }
      ],
      "name": "Transfer",
      "type": "event"
    },
    {
      "anonymous": false,
      "inputs": [
        {
          "indexed": false,
          "internalType": "address",
          "name": "account",
          "type": "address"
        }
      ],
      "name": "Unpaused",
      "type": "event"
    },
    {
      "anonymous": false,
      "inputs": [
        {
          "indexed": true,
          "internalType": "address",
          "name": "member",
          "type": "address"
        },
        {
          "indexed": true,
          "internalType": "uint256",
          "name": "memberId",
          "type": "uint256"
        },
        {
          "indexed": false,
          "internalType": "uint256",
          "name": "oTier",
          "type": "uint256"
        },
        {
          "indexed": false,
          "internalType": "uint256",
          "name": "nTier",
          "type": "uint256"
        }
      ],
      "name": "Upgraded",
      "type": "event"
    },
    {
      "inputs": [
        {
          "internalType": "address",
          "name": "_account",
          "type": "address"
        },
        {
          "internalType": "uint256",
          "name": "_memberId",
          "type": "uint256"
        }
      ],
      "name": "addMembership",
      "outputs": [],
      "stateMutability": "nonpayable",
      "type": "function"
    },
    {
      "inputs": [
        {
          "internalType": "address",
          "name": "to",
          "type": "address"
        },
        {
          "internalType": "uint256",
          "name": "tokenId",
          "type": "uint256"
        }
      ],
      "name": "approve",
      "outputs": [],
      "stateMutability": "nonpayable",
      "type": "function"
    },
    {
      "inputs": [
        {
          "internalType": "address",
          "name": "owner",
          "type": "address"
        }
      ],
      "name": "balanceOf",
      "outputs": [
        {
          "internalType": "uint256",
          "name": "",
          "type": "uint256"
        }
      ],
      "stateMutability": "view",
      "type": "function"
    },
    {
      "inputs": [],
      "name": "baseURI",
      "outputs": [
        {
          "internalType": "string",
          "name": "",
          "type": "string"
        }
      ],
      "stateMutability": "view",
      "type": "function"
    },
    {
      "inputs": [
        {
          "internalType": "uint256",
          "name": "_memberId",
          "type": "uint256"
        }
      ],
      "name": "cancelMembership",
      "outputs": [],
      "stateMutability": "nonpayable",
      "type": "function"
    },
    {
      "inputs": [
        {
          "internalType": "uint256[]",
          "name": "_values",
          "type": "uint256[]"
        }
      ],
      "name": "config",
      "outputs": [],
      "stateMutability": "nonpayable",
      "type": "function"
    },
    {
      "inputs": [
        {
          "internalType": "uint256",
          "name": "tokenId",
          "type": "uint256"
        }
      ],
      "name": "getApproved",
      "outputs": [
        {
          "internalType": "address",
          "name": "",
          "type": "address"
        }
      ],
      "stateMutability": "view",
      "type": "function"
    },
    {
      "inputs": [
        {
          "internalType": "address",
          "name": "owner",
          "type": "address"
        },
        {
          "internalType": "address",
          "name": "operator",
          "type": "address"
        }
      ],
      "name": "isApprovedForAll",
      "outputs": [
        {
          "internalType": "bool",
          "name": "",
          "type": "bool"
        }
      ],
      "stateMutability": "view",
      "type": "function"
    },
    {
      "inputs": [],
      "name": "maxTier",
      "outputs": [
        {
          "internalType": "uint256",
          "name": "",
          "type": "uint256"
        }
      ],
      "stateMutability": "view",
      "type": "function"
    },
    {
      "inputs": [],
      "name": "name",
      "outputs": [
        {
          "internalType": "string",
          "name": "",
          "type": "string"
        }
      ],
      "stateMutability": "view",
      "type": "function"
    },
    {
      "inputs": [
        {
          "internalType": "address",
          "name": "_account",
          "type": "address"
        },
        {
          "internalType": "uint256",
          "name": "_memberId",
          "type": "uint256"
        },
        {
          "internalType": "uint256",
          "name": "_balance",
          "type": "uint256"
        }
      ],
      "name": "nextTier",
      "outputs": [
        {
          "internalType": "uint256",
          "name": "",
          "type": "uint256"
        }
      ],
      "stateMutability": "view",
      "type": "function"
    },
    {
      "inputs": [
        {
          "internalType": "address",
          "name": "",
          "type": "address"
        }
      ],
      "name": "operators",
      "outputs": [
        {
          "internalType": "bool",
          "name": "",
          "type": "bool"
        }
      ],
      "stateMutability": "view",
      "type": "function"
    },
    {
      "inputs": [],
      "name": "owner",
      "outputs": [
        {
          "internalType": "address",
          "name": "",
          "type": "address"
        }
      ],
      "stateMutability": "view",
      "type": "function"
    },
    {
      "inputs": [
        {
          "internalType": "uint256",
          "name": "tokenId",
          "type": "uint256"
        }
      ],
      "name": "ownerOf",
      "outputs": [
        {
          "internalType": "address",
          "name": "",
          "type": "address"
        }
      ],
      "stateMutability": "view",
      "type": "function"
    },
    {
      "inputs": [],
      "name": "pause",
      "outputs": [],
      "stateMutability": "nonpayable",
      "type": "function"
    },
    {
      "inputs": [],
      "name": "paused",
      "outputs": [
        {
          "internalType": "bool",
          "name": "",
          "type": "bool"
        }
      ],
      "stateMutability": "view",
      "type": "function"
    },
    {
      "inputs": [],
      "name": "renounceOwnership",
      "outputs": [],
      "stateMutability": "nonpayable",
      "type": "function"
    },
    {
      "inputs": [
        {
          "internalType": "uint256",
          "name": "_tierNo",
          "type": "uint256"
        }
      ],
      "name": "requirement",
      "outputs": [
        {
          "internalType": "uint256",
          "name": "",
          "type": "uint256"
        }
      ],
      "stateMutability": "view",
      "type": "function"
    },
    {
      "inputs": [
        {
          "internalType": "address",
          "name": "_from",
          "type": "address"
        },
        {
          "internalType": "address",
          "name": "_to",
          "type": "address"
        },
        {
          "internalType": "uint256",
          "name": "_memberId",
          "type": "uint256"
        }
      ],
      "name": "safeTransferFrom",
      "outputs": [],
      "stateMutability": "nonpayable",
      "type": "function"
    },
    {
      "inputs": [
        {
          "internalType": "address",
          "name": "_from",
          "type": "address"
        },
        {
          "internalType": "address",
          "name": "_to",
          "type": "address"
        },
        {
          "internalType": "uint256",
          "name": "_memberId",
          "type": "uint256"
        },
        {
          "internalType": "bytes",
          "name": "_data",
          "type": "bytes"
        }
      ],
      "name": "safeTransferFrom",
      "outputs": [],
      "stateMutability": "nonpayable",
      "type": "function"
    },
    {
      "inputs": [
        {
          "internalType": "address",
          "name": "operator",
          "type": "address"
        },
        {
          "internalType": "bool",
          "name": "approved",
          "type": "bool"
        }
      ],
      "name": "setApprovalForAll",
      "outputs": [],
      "stateMutability": "nonpayable",
      "type": "function"
    },
    {
      "inputs": [
        {
          "internalType": "address[]",
          "name": "_operators",
          "type": "address[]"
        },
        {
          "internalType": "bool",
          "name": "_isAdded",
          "type": "bool"
        }
      ],
      "name": "setOperator",
      "outputs": [],
      "stateMutability": "nonpayable",
      "type": "function"
    },
    {
      "inputs": [
        {
          "internalType": "bytes4",
          "name": "interfaceId",
          "type": "bytes4"
        }
      ],
      "name": "supportsInterface",
      "outputs": [
        {
          "internalType": "bool",
          "name": "",
          "type": "bool"
        }
      ],
      "stateMutability": "view",
      "type": "function"
    },
    {
      "inputs": [],
      "name": "symbol",
      "outputs": [
        {
          "internalType": "string",
          "name": "",
          "type": "string"
        }
      ],
      "stateMutability": "view",
      "type": "function"
    },
    {
      "inputs": [
        {
          "internalType": "address",
          "name": "_account",
          "type": "address"
        },
        {
          "internalType": "uint256",
          "name": "_memberId",
          "type": "uint256"
        }
      ],
      "name": "tier",
      "outputs": [
        {
          "internalType": "uint256",
          "name": "",
          "type": "uint256"
        }
      ],
      "stateMutability": "view",
      "type": "function"
    },
    {
      "inputs": [
        {
          "internalType": "uint256",
          "name": "index",
          "type": "uint256"
        }
      ],
      "name": "tokenByIndex",
      "outputs": [
        {
          "internalType": "uint256",
          "name": "",
          "type": "uint256"
        }
      ],
      "stateMutability": "view",
      "type": "function"
    },
    {
      "inputs": [
        {
          "internalType": "address",
          "name": "owner",
          "type": "address"
        },
        {
          "internalType": "uint256",
          "name": "index",
          "type": "uint256"
        }
      ],
      "name": "tokenOfOwnerByIndex",
      "outputs": [
        {
          "internalType": "uint256",
          "name": "",
          "type": "uint256"
        }
      ],
      "stateMutability": "view",
      "type": "function"
    },
    {
      "inputs": [
        {
          "internalType": "uint256",
          "name": "tokenId",
          "type": "uint256"
        }
      ],
      "name": "tokenURI",
      "outputs": [
        {
          "internalType": "string",
          "name": "",
          "type": "string"
        }
      ],
      "stateMutability": "view",
      "type": "function"
    },
    {
      "inputs": [
        {
          "internalType": "address",
          "name": "_account",
          "type": "address"
        },
        {
          "internalType": "uint256",
          "name": "_fromIdx",
          "type": "uint256"
        },
        {
          "internalType": "uint256",
          "name": "_toIdx",
          "type": "uint256"
        }
      ],
      "name": "tokensByOwner",
      "outputs": [
        {
          "internalType": "uint256[]",
          "name": "_tokens",
          "type": "uint256[]"
        }
      ],
      "stateMutability": "view",
      "type": "function"
    },
    {
      "inputs": [],
      "name": "totalSupply",
      "outputs": [
        {
          "internalType": "uint256",
          "name": "",
          "type": "uint256"
        }
      ],
      "stateMutability": "view",
      "type": "function"
    },
    {
      "inputs": [
        {
          "internalType": "address",
          "name": "_from",
          "type": "address"
        },
        {
          "internalType": "address",
          "name": "_to",
          "type": "address"
        },
        {
          "internalType": "uint256",
          "name": "_memberId",
          "type": "uint256"
        }
      ],
      "name": "transferFrom",
      "outputs": [],
      "stateMutability": "nonpayable",
      "type": "function"
    },
    {
      "inputs": [
        {
          "internalType": "address",
          "name": "newOwner",
          "type": "address"
        }
      ],
      "name": "transferOwnership",
      "outputs": [],
      "stateMutability": "nonpayable",
      "type": "function"
    },
    {
      "inputs": [],
      "name": "unpause",
      "outputs": [],
      "stateMutability": "nonpayable",
      "type": "function"
    },
    {
      "inputs": [
        {
          "internalType": "string",
          "name": "_uri",
          "type": "string"
        }
      ],
      "name": "updateBaseURI",
      "outputs": [],
      "stateMutability": "nonpayable",
      "type": "function"
    },
    {
      "inputs": [
        {
          "internalType": "address",
          "name": "_account",
          "type": "address"
        },
        {
          "internalType": "uint256",
          "name": "_memberId",
          "type": "uint256"
        },
        {
          "internalType": "uint256",
          "name": "_nextTier",
          "type": "uint256"
        }
      ],
      "name": "upgrade",
      "outputs": [],
      "stateMutability": "nonpayable",
      "type": "function"
    }
  ],
  "bytecode": "0x60806040523480156200001157600080fd5b50604051620042d8380380620042d88339818101604052810190620000379190620003e5565b828281600090805190602001906200005192919062000198565b5080600190805190602001906200006a92919062000198565b5050506000600a60006101000a81548160ff021916908315150217905550620000a86200009c620000ca60201b60201c565b620000d260201b60201c565b80600f9080519060200190620000c092919062000198565b5050505062000503565b600033905090565b6000600a60019054906101000a900473ffffffffffffffffffffffffffffffffffffffff16905081600a60016101000a81548173ffffffffffffffffffffffffffffffffffffffff021916908373ffffffffffffffffffffffffffffffffffffffff1602179055508173ffffffffffffffffffffffffffffffffffffffff168173ffffffffffffffffffffffffffffffffffffffff167f8be0079c531659141344cd1fd0a4f28419497f9722a3daafe3b4186f6b6457e060405160405180910390a35050565b828054620001a690620004cd565b90600052602060002090601f016020900481019282620001ca576000855562000216565b82601f10620001e557805160ff191683800117855562000216565b8280016001018555821562000216579182015b8281111562000215578251825591602001919060010190620001f8565b5b50905062000225919062000229565b5090565b5b80821115620002445760008160009055506001016200022a565b5090565b6000604051905090565b600080fd5b600080fd5b600080fd5b600080fd5b6000601f19601f8301169050919050565b7f4e487b7100000000000000000000000000000000000000000000000000000000600052604160045260246000fd5b620002b18262000266565b810181811067ffffffffffffffff82111715620002d357620002d262000277565b5b80604052505050565b6000620002e862000248565b9050620002f68282620002a6565b919050565b600067ffffffffffffffff82111562000319576200031862000277565b5b620003248262000266565b9050602081019050919050565b60005b838110156200035157808201518184015260208101905062000334565b8381111562000361576000848401525b50505050565b60006200037e6200037884620002fb565b620002dc565b9050828152602081018484840111156200039d576200039c62000261565b5b620003aa84828562000331565b509392505050565b600082601f830112620003ca57620003c96200025c565b5b8151620003dc84826020860162000367565b91505092915050565b60008060006060848603121562000401576200040062000252565b5b600084015167ffffffffffffffff81111562000422576200042162000257565b5b6200043086828701620003b2565b935050602084015167ffffffffffffffff81111562000454576200045362000257565b5b6200046286828701620003b2565b925050604084015167ffffffffffffffff81111562000486576200048562000257565b5b6200049486828701620003b2565b9150509250925092565b7f4e487b7100000000000000000000000000000000000000000000000000000000600052602260045260246000fd5b60006002820490506001821680620004e657607f821691505b60208210811415620004fd57620004fc6200049e565b5b50919050565b613dc580620005136000396000f3fe608060405234801561001057600080fd5b50600436106102115760003560e01c80636352211e116101255780638da5cb5b116100ad578063b88d4fde1161007c578063b88d4fde14610612578063c87b56dd1461062e578063e985e9c51461065e578063f050e4d31461068e578063f2fde38b146106aa57610211565b80638da5cb5b1461059e578063931688cb146105bc57806395d89b41146105d8578063a22cb465146105f657610211565b80637473c9a2116100f45780637473c9a2146104fa578063757b08841461052a5780637bfbbacb1461055a5780638456cb591461057857806389def3201461058257610211565b80636352211e146104725780636c0360eb146104a257806370a08231146104c0578063715018a6146104f057610211565b80632f745c59116101a857806343198ac41161017757806343198ac4146103bc5780634bdb54e0146103ec5780634f6ccce71461040857806350fa8942146104385780635c975abb1461045457610211565b80632f745c59146103365780633a034308146103665780633f4ba83a1461039657806342842e0e146103a057610211565b806313e7c9d8116101e457806313e7c9d8146102b057806318160ddd146102e05780631ed6144e146102fe57806323b872dd1461031a57610211565b806301ffc9a71461021657806306fdde0314610246578063081812fc14610264578063095ea7b314610294575b600080fd5b610230600480360381019061022b9190612a14565b6106c6565b60405161023d9190612a5c565b60405180910390f35b61024e610740565b60405161025b9190612b10565b60405180910390f35b61027e60048036038101906102799190612b68565b6107d2565b60405161028b9190612bd6565b60405180910390f35b6102ae60048036038101906102a99190612c1d565b610818565b005b6102ca60048036038101906102c59190612c5d565b610853565b6040516102d79190612a5c565b60405180910390f35b6102e8610873565b6040516102f59190612c99565b60405180910390f35b61031860048036038101906103139190612d45565b610880565b005b610334600480360381019061032f9190612da5565b610933565b005b610350600480360381019061034b9190612c1d565b61096e565b60405161035d9190612c99565b60405180910390f35b610380600480360381019061037b9190612df8565b610a13565b60405161038d9190612c99565b60405180910390f35b61039e610adc565b005b6103ba60048036038101906103b59190612da5565b610aee565b005b6103d660048036038101906103d19190612df8565b610b29565b6040516103e39190612f09565b60405180910390f35b61040660048036038101906104019190612f81565b610bed565b005b610422600480360381019061041d9190612b68565b610d37565b60405161042f9190612c99565b60405180910390f35b610452600480360381019061044d9190612df8565b610da8565b005b61045c610f36565b6040516104699190612a5c565b60405180910390f35b61048c60048036038101906104879190612b68565b610f4d565b6040516104999190612bd6565b60405180910390f35b6104aa610fd4565b6040516104b79190612b10565b60405180910390f35b6104da60048036038101906104d59190612c5d565b611062565b6040516104e79190612c99565b60405180910390f35b6104f861111a565b005b610514600480360381019061050f9190612c1d565b61112e565b6040516105219190612c99565b60405180910390f35b610544600480360381019061053f9190612b68565b611189565b6040516105519190612c99565b60405180910390f35b6105626111a6565b60405161056f9190612c99565b60405180910390f35b6105806111b0565b005b61059c60048036038101906105979190612b68565b6111c2565b005b6105a661128e565b6040516105b39190612bd6565b60405180910390f35b6105d660048036038101906105d19190613024565b6112b8565b005b6105e06112d6565b6040516105ed9190612b10565b60405180910390f35b610610600480360381019061060b9190613071565b611368565b005b61062c600480360381019061062791906131e1565b6113a3565b005b61064860048036038101906106439190612b68565b6113de565b6040516106559190612b10565b60405180910390f35b61067860048036038101906106739190613264565b611446565b6040516106859190612a5c565b60405180910390f35b6106a860048036038101906106a39190612c1d565b6114da565b005b6106c460048036038101906106bf9190612c5d565b6115bf565b005b60007f780e9d63000000000000000000000000000000000000000000000000000000007bffffffffffffffffffffffffffffffffffffffffffffffffffffffff1916827bffffffffffffffffffffffffffffffffffffffffffffffffffffffff19161480610739575061073882611643565b5b9050919050565b60606000805461074f906132d3565b80601f016020809104026020016040519081016040528092919081815260200182805461077b906132d3565b80156107c85780601f1061079d576101008083540402835291602001916107c8565b820191906000526020600020905b8154815290600101906020018083116107ab57829003601f168201915b5050505050905090565b60006107dd82611725565b6004600083815260200190815260200160002060009054906101000a900473ffffffffffffffffffffffffffffffffffffffff169050919050565b6040517f08c379a000000000000000000000000000000000000000000000000000000000815260040161084a90613377565b60405180910390fd5b600e6020528060005260406000206000915054906101000a900460ff1681565b6000600880549050905090565b610888611770565b600083839050905060005b8181101561092c5782600e60008787858181106108b3576108b2613397565b5b90506020020160208101906108c89190612c5d565b73ffffffffffffffffffffffffffffffffffffffff1673ffffffffffffffffffffffffffffffffffffffff16815260200190815260200160002060006101000a81548160ff0219169083151502179055508080610924906133f5565b915050610893565b5050505050565b6040517f08c379a000000000000000000000000000000000000000000000000000000000815260040161096590613377565b60405180910390fd5b600061097983611062565b82106109ba576040517f08c379a00000000000000000000000000000000000000000000000000000000081526004016109b1906134b0565b60405180910390fd5b600660008473ffffffffffffffffffffffffffffffffffffffff1673ffffffffffffffffffffffffffffffffffffffff168152602001908152602001600020600083815260200190815260200160002054905092915050565b600080610a1e6111a6565b90506000610a2b82611189565b90506000818510610a4157829350505050610ad5565b6000610a4d888861112e565b905060008490505b808211610acc5760028183610a6a91906134d0565b610a749190613555565b9250610a7f83611189565b935083871015610a9d57600183610a969190613586565b9050610ac7565b83871115610ab957600183610ab291906134d0565b9150610ac6565b8295505050505050610ad5565b5b610a55565b80955050505050505b9392505050565b610ae4611770565b610aec6117ee565b565b6040517f08c379a0000000000000000000000000000000000000000000000000000000008152600401610b2090613377565b60405180910390fd5b6060600060018484610b3b9190613586565b610b4591906134d0565b90508067ffffffffffffffff811115610b6157610b606130b6565b5b604051908082528060200260200182016040528015610b8f5781602001602082028036833780820191505090505b50915060005b81811015610be457610bb2868287610bad91906134d0565b61096e565b838281518110610bc557610bc4613397565b5b6020026020010181815250508080610bdc906133f5565b915050610b95565b50509392505050565b610bf5611770565b6000600b549050600083839050905060008060005b83811015610cc357868682818110610c2557610c24613397565b5b905060200201359150828211610c70576040517f08c379a0000000000000000000000000000000000000000000000000000000008152600401610c6790613606565b60405180910390fd5b819250868682818110610c8657610c85613397565b5b90506020020135600c6000600184610c9e91906134d0565b8152602001908152602001600020819055508080610cbb906133f5565b915050610c0a565b5082600b8190555083831015610d2f578284610cdf9190613586565b905060005b81811015610d2d57600c600060018387610cfe91906134d0565b610d0891906134d0565b8152602001908152602001600020600090558080610d25906133f5565b915050610ce4565b505b505050505050565b6000610d41610873565b8210610d82576040517f08c379a0000000000000000000000000000000000000000000000000000000008152600401610d7990613698565b60405180910390fd5b60088281548110610d9657610d95613397565b5b90600052602060002001549050919050565b600e6000610db4611851565b73ffffffffffffffffffffffffffffffffffffffff1673ffffffffffffffffffffffffffffffffffffffff16815260200190815260200160002060009054906101000a900460ff16610e3b576040517f08c379a0000000000000000000000000000000000000000000000000000000008152600401610e3290613704565b60405180910390fd5b818373ffffffffffffffffffffffffffffffffffffffff167f9c1ccdc91bf8cfe9ff410fa78f489a2cfd882132809cf9779293003b043a9e30600d60008773ffffffffffffffffffffffffffffffffffffffff1673ffffffffffffffffffffffffffffffffffffffff16815260200190815260200160002060008681526020019081526020016000205484604051610ed4929190613724565b60405180910390a380600d60008573ffffffffffffffffffffffffffffffffffffffff1673ffffffffffffffffffffffffffffffffffffffff168152602001908152602001600020600084815260200190815260200160002081905550505050565b6000600a60009054906101000a900460ff16905090565b600080610f5983611859565b9050600073ffffffffffffffffffffffffffffffffffffffff168173ffffffffffffffffffffffffffffffffffffffff161415610fcb576040517f08c379a0000000000000000000000000000000000000000000000000000000008152600401610fc290613799565b60405180910390fd5b80915050919050565b600f8054610fe1906132d3565b80601f016020809104026020016040519081016040528092919081815260200182805461100d906132d3565b801561105a5780601f1061102f5761010080835404028352916020019161105a565b820191906000526020600020905b81548152906001019060200180831161103d57829003601f168201915b505050505081565b60008073ffffffffffffffffffffffffffffffffffffffff168273ffffffffffffffffffffffffffffffffffffffff1614156110d3576040517f08c379a00000000000000000000000000000000000000000000000000000000081526004016110ca9061382b565b60405180910390fd5b600360008373ffffffffffffffffffffffffffffffffffffffff1673ffffffffffffffffffffffffffffffffffffffff168152602001908152602001600020549050919050565b611122611770565b61112c6000611896565b565b6000600d60008473ffffffffffffffffffffffffffffffffffffffff1673ffffffffffffffffffffffffffffffffffffffff168152602001908152602001600020600083815260200190815260200160002054905092915050565b6000600c6000838152602001908152602001600020549050919050565b6000600b54905090565b6111b8611770565b6111c061195c565b565b600e60006111ce611851565b73ffffffffffffffffffffffffffffffffffffffff1673ffffffffffffffffffffffffffffffffffffffff16815260200190815260200160002060009054906101000a900460ff16611255576040517f08c379a000000000000000000000000000000000000000000000000000000000815260040161124c90613704565b60405180910390fd5b61125e816119bf565b807f8bf30e7ff26833413be5f69e1d373744864d600b664204b4a2f9844a8eedb9ed60405160405180910390a250565b6000600a60019054906101000a900473ffffffffffffffffffffffffffffffffffffffff16905090565b6112c0611770565b8181600f91906112d1929190612905565b505050565b6060600180546112e5906132d3565b80601f0160208091040260200160405190810160405280929190818152602001828054611311906132d3565b801561135e5780601f106113335761010080835404028352916020019161135e565b820191906000526020600020905b81548152906001019060200180831161134157829003601f168201915b5050505050905090565b6040517f08c379a000000000000000000000000000000000000000000000000000000000815260040161139a90613377565b60405180910390fd5b6040517f08c379a00000000000000000000000000000000000000000000000000000000081526004016113d590613377565b60405180910390fd5b60606113e982611725565b60006113f3611b0d565b90506000815111611413576040518060200160405280600081525061143e565b8061141d84611b9f565b60405160200161142e929190613887565b6040516020818303038152906040525b915050919050565b6000600560008473ffffffffffffffffffffffffffffffffffffffff1673ffffffffffffffffffffffffffffffffffffffff16815260200190815260200160002060008373ffffffffffffffffffffffffffffffffffffffff1673ffffffffffffffffffffffffffffffffffffffff16815260200190815260200160002060009054906101000a900460ff16905092915050565b600e60006114e6611851565b73ffffffffffffffffffffffffffffffffffffffff1673ffffffffffffffffffffffffffffffffffffffff16815260200190815260200160002060009054906101000a900460ff1661156d576040517f08c379a000000000000000000000000000000000000000000000000000000000815260040161156490613704565b60405180910390fd5b6115778282611c77565b808273ffffffffffffffffffffffffffffffffffffffff167ff6c60b059f60c86b2d612b237ac38bd87bc1f68f87600cd360d68351af1ca95f60405160405180910390a35050565b6115c7611770565b600073ffffffffffffffffffffffffffffffffffffffff168173ffffffffffffffffffffffffffffffffffffffff161415611637576040517f08c379a000000000000000000000000000000000000000000000000000000000815260040161162e9061391d565b60405180910390fd5b61164081611896565b50565b60007f80ac58cd000000000000000000000000000000000000000000000000000000007bffffffffffffffffffffffffffffffffffffffffffffffffffffffff1916827bffffffffffffffffffffffffffffffffffffffffffffffffffffffff1916148061170e57507f5b5e139f000000000000000000000000000000000000000000000000000000007bffffffffffffffffffffffffffffffffffffffffffffffffffffffff1916827bffffffffffffffffffffffffffffffffffffffffffffffffffffffff1916145b8061171e575061171d82611c95565b5b9050919050565b61172e81611cff565b61176d576040517f08c379a000000000000000000000000000000000000000000000000000000000815260040161176490613799565b60405180910390fd5b50565b611778611851565b73ffffffffffffffffffffffffffffffffffffffff1661179661128e565b73ffffffffffffffffffffffffffffffffffffffff16146117ec576040517f08c379a00000000000000000000000000000000000000000000000000000000081526004016117e390613989565b60405180910390fd5b565b6117f6611d40565b6000600a60006101000a81548160ff0219169083151502179055507f5db9ee0a495bf2e6ff9c91a7834c1ba4fdd244a5e8aa4e537bd38aeae4b073aa61183a611851565b6040516118479190612bd6565b60405180910390a1565b600033905090565b60006002600083815260200190815260200160002060009054906101000a900473ffffffffffffffffffffffffffffffffffffffff169050919050565b6000600a60019054906101000a900473ffffffffffffffffffffffffffffffffffffffff16905081600a60016101000a81548173ffffffffffffffffffffffffffffffffffffffff021916908373ffffffffffffffffffffffffffffffffffffffff1602179055508173ffffffffffffffffffffffffffffffffffffffff168173ffffffffffffffffffffffffffffffffffffffff167f8be0079c531659141344cd1fd0a4f28419497f9722a3daafe3b4186f6b6457e060405160405180910390a35050565b611964611d89565b6001600a60006101000a81548160ff0219169083151502179055507f62e78cea01bee320cd4e420270b5ea74000d11b0c9f74754ebdbfc544b05a2586119a8611851565b6040516119b59190612bd6565b60405180910390a1565b60006119ca82610f4d565b90506119da816000846001611dd3565b6119e382610f4d565b90506004600083815260200190815260200160002060006101000a81549073ffffffffffffffffffffffffffffffffffffffff02191690556001600360008373ffffffffffffffffffffffffffffffffffffffff1673ffffffffffffffffffffffffffffffffffffffff168152602001908152602001600020600082825403925050819055506002600083815260200190815260200160002060006101000a81549073ffffffffffffffffffffffffffffffffffffffff021916905581600073ffffffffffffffffffffffffffffffffffffffff168273ffffffffffffffffffffffffffffffffffffffff167fddf252ad1be2c89b69c2b068fc378daa952ba7f163c4a11628f55a4df523b3ef60405160405180910390a4611b09816000846001611ded565b5050565b6060600f8054611b1c906132d3565b80601f0160208091040260200160405190810160405280929190818152602001828054611b48906132d3565b8015611b955780601f10611b6a57610100808354040283529160200191611b95565b820191906000526020600020905b815481529060010190602001808311611b7857829003601f168201915b5050505050905090565b606060006001611bae84611df3565b01905060008167ffffffffffffffff811115611bcd57611bcc6130b6565b5b6040519080825280601f01601f191660200182016040528015611bff5781602001600182028036833780820191505090505b509050600082602001820190505b600115611c6c578080600190039150507f3031323334353637383961626364656600000000000000000000000000000000600a86061a8153600a8581611c5657611c55613526565b5b0494506000851415611c6757611c6c565b611c0d565b819350505050919050565b611c91828260405180602001604052806000815250611f46565b5050565b60007f01ffc9a7000000000000000000000000000000000000000000000000000000007bffffffffffffffffffffffffffffffffffffffffffffffffffffffff1916827bffffffffffffffffffffffffffffffffffffffffffffffffffffffff1916149050919050565b60008073ffffffffffffffffffffffffffffffffffffffff16611d2183611859565b73ffffffffffffffffffffffffffffffffffffffff1614159050919050565b611d48610f36565b611d87576040517f08c379a0000000000000000000000000000000000000000000000000000000008152600401611d7e906139f5565b60405180910390fd5b565b611d91610f36565b15611dd1576040517f08c379a0000000000000000000000000000000000000000000000000000000008152600401611dc890613a61565b60405180910390fd5b565b611ddb611d89565b611de784848484611fa1565b50505050565b50505050565b600080600090507a184f03e93ff9f4daa797ed6e38ed64bf6a1f0100000000000000008310611e51577a184f03e93ff9f4daa797ed6e38ed64bf6a1f0100000000000000008381611e4757611e46613526565b5b0492506040810190505b6d04ee2d6d415b85acef81000000008310611e8e576d04ee2d6d415b85acef81000000008381611e8457611e83613526565b5b0492506020810190505b662386f26fc100008310611ebd57662386f26fc100008381611eb357611eb2613526565b5b0492506010810190505b6305f5e1008310611ee6576305f5e1008381611edc57611edb613526565b5b0492506008810190505b6127108310611f0b576127108381611f0157611f00613526565b5b0492506004810190505b60648310611f2e5760648381611f2457611f23613526565b5b0492506002810190505b600a8310611f3d576001810190505b80915050919050565b611f508383612101565b611f5d600084848461231f565b611f9c576040517f08c379a0000000000000000000000000000000000000000000000000000000008152600401611f9390613af3565b60405180910390fd5b505050565b611fad848484846124b6565b6001811115611ff1576040517f08c379a0000000000000000000000000000000000000000000000000000000008152600401611fe890613b85565b60405180910390fd5b6000829050600073ffffffffffffffffffffffffffffffffffffffff168573ffffffffffffffffffffffffffffffffffffffff16141561203957612034816125dc565b612078565b8373ffffffffffffffffffffffffffffffffffffffff168573ffffffffffffffffffffffffffffffffffffffff1614612077576120768582612625565b5b5b600073ffffffffffffffffffffffffffffffffffffffff168473ffffffffffffffffffffffffffffffffffffffff1614156120bb576120b681612792565b6120fa565b8473ffffffffffffffffffffffffffffffffffffffff168473ffffffffffffffffffffffffffffffffffffffff16146120f9576120f88482612863565b5b5b5050505050565b600073ffffffffffffffffffffffffffffffffffffffff168273ffffffffffffffffffffffffffffffffffffffff161415612171576040517f08c379a000000000000000000000000000000000000000000000000000000000815260040161216890613bf1565b60405180910390fd5b61217a81611cff565b156121ba576040517f08c379a00000000000000000000000000000000000000000000000000000000081526004016121b190613c5d565b60405180910390fd5b6121c8600083836001611dd3565b6121d181611cff565b15612211576040517f08c379a000000000000000000000000000000000000000000000000000000000815260040161220890613c5d565b60405180910390fd5b6001600360008473ffffffffffffffffffffffffffffffffffffffff1673ffffffffffffffffffffffffffffffffffffffff16815260200190815260200160002060008282540192505081905550816002600083815260200190815260200160002060006101000a81548173ffffffffffffffffffffffffffffffffffffffff021916908373ffffffffffffffffffffffffffffffffffffffff160217905550808273ffffffffffffffffffffffffffffffffffffffff16600073ffffffffffffffffffffffffffffffffffffffff167fddf252ad1be2c89b69c2b068fc378daa952ba7f163c4a11628f55a4df523b3ef60405160405180910390a461231b600083836001611ded565b5050565b60006123408473ffffffffffffffffffffffffffffffffffffffff166128e2565b156124a9578373ffffffffffffffffffffffffffffffffffffffff1663150b7a02612369611851565b8786866040518563ffffffff1660e01b815260040161238b9493929190613cd2565b602060405180830381600087803b1580156123a557600080fd5b505af19250505080156123d657506040513d601f19601f820116820180604052508101906123d39190613d33565b60015b612459573d8060008114612406576040519150601f19603f3d011682016040523d82523d6000602084013e61240b565b606091505b50600081511415612451576040517f08c379a000000000000000000000000000000000000000000000000000000000815260040161244890613af3565b60405180910390fd5b805181602001fd5b63150b7a0260e01b7bffffffffffffffffffffffffffffffffffffffffffffffffffffffff1916817bffffffffffffffffffffffffffffffffffffffffffffffffffffffff1916149150506124ae565b600190505b949350505050565b60018111156125d657600073ffffffffffffffffffffffffffffffffffffffff168473ffffffffffffffffffffffffffffffffffffffff161461254a5780600360008673ffffffffffffffffffffffffffffffffffffffff1673ffffffffffffffffffffffffffffffffffffffff16815260200190815260200160002060008282546125429190613586565b925050819055505b600073ffffffffffffffffffffffffffffffffffffffff168373ffffffffffffffffffffffffffffffffffffffff16146125d55780600360008573ffffffffffffffffffffffffffffffffffffffff1673ffffffffffffffffffffffffffffffffffffffff16815260200190815260200160002060008282546125cd91906134d0565b925050819055505b5b50505050565b6008805490506009600083815260200190815260200160002081905550600881908060018154018082558091505060019003906000526020600020016000909190919091505550565b6000600161263284611062565b61263c9190613586565b9050600060076000848152602001908152602001600020549050818114612721576000600660008673ffffffffffffffffffffffffffffffffffffffff1673ffffffffffffffffffffffffffffffffffffffff168152602001908152602001600020600084815260200190815260200160002054905080600660008773ffffffffffffffffffffffffffffffffffffffff1673ffffffffffffffffffffffffffffffffffffffff168152602001908152602001600020600084815260200190815260200160002081905550816007600083815260200190815260200160002081905550505b6007600084815260200190815260200160002060009055600660008573ffffffffffffffffffffffffffffffffffffffff1673ffffffffffffffffffffffffffffffffffffffff16815260200190815260200160002060008381526020019081526020016000206000905550505050565b600060016008805490506127a69190613586565b90506000600960008481526020019081526020016000205490506000600883815481106127d6576127d5613397565b5b9060005260206000200154905080600883815481106127f8576127f7613397565b5b90600052602060002001819055508160096000838152602001908152602001600020819055506009600085815260200190815260200160002060009055600880548061284757612846613d60565b5b6001900381819060005260206000200160009055905550505050565b600061286e83611062565b905081600660008573ffffffffffffffffffffffffffffffffffffffff1673ffffffffffffffffffffffffffffffffffffffff168152602001908152602001600020600083815260200190815260200160002081905550806007600084815260200190815260200160002081905550505050565b6000808273ffffffffffffffffffffffffffffffffffffffff163b119050919050565b828054612911906132d3565b90600052602060002090601f016020900481019282612933576000855561297a565b82601f1061294c57803560ff191683800117855561297a565b8280016001018555821561297a579182015b8281111561297957823582559160200191906001019061295e565b5b509050612987919061298b565b5090565b5b808211156129a457600081600090555060010161298c565b5090565b6000604051905090565b600080fd5b600080fd5b60007fffffffff0000000000000000000000000000000000000000000000000000000082169050919050565b6129f1816129bc565b81146129fc57600080fd5b50565b600081359050612a0e816129e8565b92915050565b600060208284031215612a2a57612a296129b2565b5b6000612a38848285016129ff565b91505092915050565b60008115159050919050565b612a5681612a41565b82525050565b6000602082019050612a716000830184612a4d565b92915050565b600081519050919050565b600082825260208201905092915050565b60005b83811015612ab1578082015181840152602081019050612a96565b83811115612ac0576000848401525b50505050565b6000601f19601f8301169050919050565b6000612ae282612a77565b612aec8185612a82565b9350612afc818560208601612a93565b612b0581612ac6565b840191505092915050565b60006020820190508181036000830152612b2a8184612ad7565b905092915050565b6000819050919050565b612b4581612b32565b8114612b5057600080fd5b50565b600081359050612b6281612b3c565b92915050565b600060208284031215612b7e57612b7d6129b2565b5b6000612b8c84828501612b53565b91505092915050565b600073ffffffffffffffffffffffffffffffffffffffff82169050919050565b6000612bc082612b95565b9050919050565b612bd081612bb5565b82525050565b6000602082019050612beb6000830184612bc7565b92915050565b612bfa81612bb5565b8114612c0557600080fd5b50565b600081359050612c1781612bf1565b92915050565b60008060408385031215612c3457612c336129b2565b5b6000612c4285828601612c08565b9250506020612c5385828601612b53565b9150509250929050565b600060208284031215612c7357612c726129b2565b5b6000612c8184828501612c08565b91505092915050565b612c9381612b32565b82525050565b6000602082019050612cae6000830184612c8a565b92915050565b600080fd5b600080fd5b600080fd5b60008083601f840112612cd957612cd8612cb4565b5b8235905067ffffffffffffffff811115612cf657612cf5612cb9565b5b602083019150836020820283011115612d1257612d11612cbe565b5b9250929050565b612d2281612a41565b8114612d2d57600080fd5b50565b600081359050612d3f81612d19565b92915050565b600080600060408486031215612d5e57612d5d6129b2565b5b600084013567ffffffffffffffff811115612d7c57612d7b6129b7565b5b612d8886828701612cc3565b93509350506020612d9b86828701612d30565b9150509250925092565b600080600060608486031215612dbe57612dbd6129b2565b5b6000612dcc86828701612c08565b9350506020612ddd86828701612c08565b9250506040612dee86828701612b53565b9150509250925092565b600080600060608486031215612e1157612e106129b2565b5b6000612e1f86828701612c08565b9350506020612e3086828701612b53565b9250506040612e4186828701612b53565b9150509250925092565b600081519050919050565b600082825260208201905092915050565b6000819050602082019050919050565b612e8081612b32565b82525050565b6000612e928383612e77565b60208301905092915050565b6000602082019050919050565b6000612eb682612e4b565b612ec08185612e56565b9350612ecb83612e67565b8060005b83811015612efc578151612ee38882612e86565b9750612eee83612e9e565b925050600181019050612ecf565b5085935050505092915050565b60006020820190508181036000830152612f238184612eab565b905092915050565b60008083601f840112612f4157612f40612cb4565b5b8235905067ffffffffffffffff811115612f5e57612f5d612cb9565b5b602083019150836020820283011115612f7a57612f79612cbe565b5b9250929050565b60008060208385031215612f9857612f976129b2565b5b600083013567ffffffffffffffff811115612fb657612fb56129b7565b5b612fc285828601612f2b565b92509250509250929050565b60008083601f840112612fe457612fe3612cb4565b5b8235905067ffffffffffffffff81111561300157613000612cb9565b5b60208301915083600182028301111561301d5761301c612cbe565b5b9250929050565b6000806020838503121561303b5761303a6129b2565b5b600083013567ffffffffffffffff811115613059576130586129b7565b5b61306585828601612fce565b92509250509250929050565b60008060408385031215613088576130876129b2565b5b600061309685828601612c08565b92505060206130a785828601612d30565b9150509250929050565b600080fd5b7f4e487b7100000000000000000000000000000000000000000000000000000000600052604160045260246000fd5b6130ee82612ac6565b810181811067ffffffffffffffff8211171561310d5761310c6130b6565b5b80604052505050565b60006131206129a8565b905061312c82826130e5565b919050565b600067ffffffffffffffff82111561314c5761314b6130b6565b5b61315582612ac6565b9050602081019050919050565b82818337600083830152505050565b600061318461317f84613131565b613116565b9050828152602081018484840111156131a05761319f6130b1565b5b6131ab848285613162565b509392505050565b600082601f8301126131c8576131c7612cb4565b5b81356131d8848260208601613171565b91505092915050565b600080600080608085870312156131fb576131fa6129b2565b5b600061320987828801612c08565b945050602061321a87828801612c08565b935050604061322b87828801612b53565b925050606085013567ffffffffffffffff81111561324c5761324b6129b7565b5b613258878288016131b3565b91505092959194509250565b6000806040838503121561327b5761327a6129b2565b5b600061328985828601612c08565b925050602061329a85828601612c08565b9150509250929050565b7f4e487b7100000000000000000000000000000000000000000000000000000000600052602260045260246000fd5b600060028204905060018216806132eb57607f821691505b602082108114156132ff576132fe6132a4565b5b50919050565b7f4d656d626572736869703a207472616e736665722f617070726f76652061726560008201527f2064697361626c65640000000000000000000000000000000000000000000000602082015250565b6000613361602983612a82565b915061336c82613305565b604082019050919050565b6000602082019050818103600083015261339081613354565b9050919050565b7f4e487b7100000000000000000000000000000000000000000000000000000000600052603260045260246000fd5b7f4e487b7100000000000000000000000000000000000000000000000000000000600052601160045260246000fd5b600061340082612b32565b91507fffffffffffffffffffffffffffffffffffffffffffffffffffffffffffffffff821415613433576134326133c6565b5b600182019050919050565b7f455243373231456e756d657261626c653a206f776e657220696e646578206f7560008201527f74206f6620626f756e6473000000000000000000000000000000000000000000602082015250565b600061349a602b83612a82565b91506134a58261343e565b604082019050919050565b600060208201905081810360008301526134c98161348d565b9050919050565b60006134db82612b32565b91506134e683612b32565b9250827fffffffffffffffffffffffffffffffffffffffffffffffffffffffffffffffff0382111561351b5761351a6133c6565b5b828201905092915050565b7f4e487b7100000000000000000000000000000000000000000000000000000000600052601260045260246000fd5b600061356082612b32565b915061356b83612b32565b92508261357b5761357a613526565b5b828204905092915050565b600061359182612b32565b915061359c83612b32565b9250828210156135af576135ae6133c6565b5b828203905092915050565b7f4e6f7420617363656e64696e67206f7264657200000000000000000000000000600082015250565b60006135f0601383612a82565b91506135fb826135ba565b602082019050919050565b6000602082019050818103600083015261361f816135e3565b9050919050565b7f455243373231456e756d657261626c653a20676c6f62616c20696e646578206f60008201527f7574206f6620626f756e64730000000000000000000000000000000000000000602082015250565b6000613682602c83612a82565b915061368d82613626565b604082019050919050565b600060208201905081810360008301526136b181613675565b9050919050565b7f4f6e6c79204f70657261746f7200000000000000000000000000000000000000600082015250565b60006136ee600d83612a82565b91506136f9826136b8565b602082019050919050565b6000602082019050818103600083015261371d816136e1565b9050919050565b60006040820190506137396000830185612c8a565b6137466020830184612c8a565b9392505050565b7f4552433732313a20696e76616c696420746f6b656e2049440000000000000000600082015250565b6000613783601883612a82565b915061378e8261374d565b602082019050919050565b600060208201905081810360008301526137b281613776565b9050919050565b7f4552433732313a2061646472657373207a65726f206973206e6f74206120766160008201527f6c6964206f776e65720000000000000000000000000000000000000000000000602082015250565b6000613815602983612a82565b9150613820826137b9565b604082019050919050565b6000602082019050818103600083015261384481613808565b9050919050565b600081905092915050565b600061386182612a77565b61386b818561384b565b935061387b818560208601612a93565b80840191505092915050565b60006138938285613856565b915061389f8284613856565b91508190509392505050565b7f4f776e61626c653a206e6577206f776e657220697320746865207a65726f206160008201527f6464726573730000000000000000000000000000000000000000000000000000602082015250565b6000613907602683612a82565b9150613912826138ab565b604082019050919050565b60006020820190508181036000830152613936816138fa565b9050919050565b7f4f776e61626c653a2063616c6c6572206973206e6f7420746865206f776e6572600082015250565b6000613973602083612a82565b915061397e8261393d565b602082019050919050565b600060208201905081810360008301526139a281613966565b9050919050565b7f5061757361626c653a206e6f7420706175736564000000000000000000000000600082015250565b60006139df601483612a82565b91506139ea826139a9565b602082019050919050565b60006020820190508181036000830152613a0e816139d2565b9050919050565b7f5061757361626c653a2070617573656400000000000000000000000000000000600082015250565b6000613a4b601083612a82565b9150613a5682613a15565b602082019050919050565b60006020820190508181036000830152613a7a81613a3e565b9050919050565b7f4552433732313a207472616e7366657220746f206e6f6e20455243373231526560008201527f63656976657220696d706c656d656e7465720000000000000000000000000000602082015250565b6000613add603283612a82565b9150613ae882613a81565b604082019050919050565b60006020820190508181036000830152613b0c81613ad0565b9050919050565b7f455243373231456e756d657261626c653a20636f6e736563757469766520747260008201527f616e7366657273206e6f7420737570706f727465640000000000000000000000602082015250565b6000613b6f603583612a82565b9150613b7a82613b13565b604082019050919050565b60006020820190508181036000830152613b9e81613b62565b9050919050565b7f4552433732313a206d696e7420746f20746865207a65726f2061646472657373600082015250565b6000613bdb602083612a82565b9150613be682613ba5565b602082019050919050565b60006020820190508181036000830152613c0a81613bce565b9050919050565b7f4552433732313a20746f6b656e20616c7265616479206d696e74656400000000600082015250565b6000613c47601c83612a82565b9150613c5282613c11565b602082019050919050565b60006020820190508181036000830152613c7681613c3a565b9050919050565b600081519050919050565b600082825260208201905092915050565b6000613ca482613c7d565b613cae8185613c88565b9350613cbe818560208601612a93565b613cc781612ac6565b840191505092915050565b6000608082019050613ce76000830187612bc7565b613cf46020830186612bc7565b613d016040830185612c8a565b8181036060830152613d138184613c99565b905095945050505050565b600081519050613d2d816129e8565b92915050565b600060208284031215613d4957613d486129b2565b5b6000613d5784828501613d1e565b91505092915050565b7f4e487b7100000000000000000000000000000000000000000000000000000000600052603160045260246000fdfea2646970667358221220f1ea8bcbca10fd8b4074c8b957bcb6411e2ba08f525f22e47f9979cf5ae33e4464736f6c63430008090033",
  "linkReferences": {},
  "deployedLinkReferences": {}
}