{
  "_format": "hh-sol-artifact-1",
  "contractName": "Periphery",
  "sourceName": "contracts/Periphery.sol",
  "abi": [
    {
      "inputs": [
        {
          "internalType": "address",
          "name": "_treasury",
          "type": "address"
        },
        {
          "internalType": "address",
          "name": "_verifier",
          "type": "address"
        }
      ],
      "stateMutability": "nonpayable",
      "type": "constructor"
    },
    {
      "anonymous": false,
      "inputs": [
        {
          "indexed": true,
          "internalType": "address",
          "name": "membership",
          "type": "address"
        },
        {
          "indexed": true,
          "internalType": "address",
          "name": "loyalty",
          "type": "address"
        }
      ],
      "name": "Disabled",
      "type": "event"
    },
    {
      "anonymous": false,
      "inputs": [
        {
          "indexed": true,
          "internalType": "address",
          "name": "membership",
          "type": "address"
        },
        {
          "indexed": true,
          "internalType": "address",
          "name": "loyalty",
          "type": "address"
        }
      ],
      "name": "Enabled",
      "type": "event"
    },
    {
      "anonymous": false,
      "inputs": [
        {
          "indexed": true,
          "internalType": "address",
          "name": "previousOwner",
          "type": "address"
        },
        {
          "indexed": true,
          "internalType": "address",
          "name": "newOwner",
          "type": "address"
        }
      ],
      "name": "OwnershipTransferred",
      "type": "event"
    },
    {
      "anonymous": false,
      "inputs": [
        {
          "indexed": true,
          "internalType": "address",
          "name": "membership",
          "type": "address"
        },
        {
          "indexed": true,
          "internalType": "address",
          "name": "voucher",
          "type": "address"
        },
        {
          "indexed": false,
          "internalType": "bool",
          "name": "isAdded",
          "type": "bool"
        }
      ],
      "name": "Updated",
      "type": "event"
    },
    {
      "inputs": [
        {
          "internalType": "address",
          "name": "_membership",
          "type": "address"
        },
        {
          "internalType": "address",
          "name": "_loyalty",
          "type": "address"
        },
        {
          "internalType": "address",
          "name": "_voucher",
          "type": "address"
        }
      ],
      "name": "addPair",
      "outputs": [],
      "stateMutability": "nonpayable",
      "type": "function"
    },
    {
      "inputs": [
        {
          "components": [
            {
              "internalType": "address",
              "name": "beneficiary",
              "type": "address"
            },
            {
              "internalType": "address",
              "name": "membership",
              "type": "address"
            },
            {
              "internalType": "uint256",
              "name": "memberId",
              "type": "uint256"
            },
            {
              "internalType": "address",
              "name": "paymentToken",
              "type": "address"
            },
            {
              "internalType": "uint256",
              "name": "point",
              "type": "uint256"
            },
            {
              "internalType": "uint256",
              "name": "totalPayment",
              "type": "uint256"
            },
            {
              "internalType": "uint128",
              "name": "nonce",
              "type": "uint128"
            },
            {
              "internalType": "uint128",
              "name": "expiry",
              "type": "uint128"
            }
          ],
          "internalType": "struct IPeriphery.Buy",
          "name": "_invoice",
          "type": "tuple"
        },
        {
          "internalType": "bytes",
          "name": "_signature",
          "type": "bytes"
        }
      ],
      "name": "buy",
      "outputs": [],
      "stateMutability": "payable",
      "type": "function"
    },
    {
      "inputs": [
        {
          "internalType": "address",
          "name": "_membership",
          "type": "address"
        }
      ],
      "name": "disablePair",
      "outputs": [],
      "stateMutability": "nonpayable",
      "type": "function"
    },
    {
      "inputs": [
        {
          "internalType": "address",
          "name": "",
          "type": "address"
        }
      ],
      "name": "disabled",
      "outputs": [
        {
          "internalType": "bool",
          "name": "",
          "type": "bool"
        }
      ],
      "stateMutability": "view",
      "type": "function"
    },
    {
      "inputs": [
        {
          "internalType": "address",
          "name": "_membership",
          "type": "address"
        }
      ],
      "name": "enablePair",
      "outputs": [],
      "stateMutability": "nonpayable",
      "type": "function"
    },
    {
      "inputs": [
        {
          "internalType": "address",
          "name": "_membership",
          "type": "address"
        }
      ],
      "name": "getLoyalty",
      "outputs": [
        {
          "internalType": "address",
          "name": "",
          "type": "address"
        }
      ],
      "stateMutability": "view",
      "type": "function"
    },
    {
      "inputs": [
        {
          "internalType": "address",
          "name": "",
          "type": "address"
        }
      ],
      "name": "nonces",
      "outputs": [
        {
          "internalType": "uint256",
          "name": "",
          "type": "uint256"
        }
      ],
      "stateMutability": "view",
      "type": "function"
    },
    {
      "inputs": [],
      "name": "owner",
      "outputs": [
        {
          "internalType": "address",
          "name": "",
          "type": "address"
        }
      ],
      "stateMutability": "view",
      "type": "function"
    },
    {
      "inputs": [
        {
          "components": [
            {
              "internalType": "address",
              "name": "membership",
              "type": "address"
            },
            {
              "internalType": "uint256",
              "name": "memberId",
              "type": "uint256"
            },
            {
              "internalType": "uint256",
              "name": "point",
              "type": "uint256"
            },
            {
              "internalType": "address",
              "name": "voucher",
              "type": "address"
            },
            {
              "internalType": "uint256",
              "name": "value",
              "type": "uint256"
            },
            {
              "internalType": "uint128",
              "name": "nonce",
              "type": "uint128"
            },
            {
              "internalType": "uint128",
              "name": "expiry",
              "type": "uint128"
            }
          ],
          "internalType": "struct IPeriphery.Redeem",
          "name": "_invoice",
          "type": "tuple"
        },
        {
          "internalType": "bytes",
          "name": "_signature",
          "type": "bytes"
        }
      ],
      "name": "redeem",
      "outputs": [],
      "stateMutability": "nonpayable",
      "type": "function"
    },
    {
      "inputs": [],
      "name": "renounceOwnership",
      "outputs": [],
      "stateMutability": "nonpayable",
      "type": "function"
    },
    {
      "inputs": [
        {
          "internalType": "address[]",
          "name": "_verifiers",
          "type": "address[]"
        },
        {
          "internalType": "bool",
          "name": "_isAdded",
          "type": "bool"
        }
      ],
      "name": "setVerifiers",
      "outputs": [],
      "stateMutability": "nonpayable",
      "type": "function"
    },
    {
      "inputs": [
        {
          "components": [
            {
              "internalType": "address",
              "name": "beneficiary",
              "type": "address"
            },
            {
              "internalType": "address",
              "name": "membership",
              "type": "address"
            },
            {
              "internalType": "uint256",
              "name": "memberId",
              "type": "uint256"
            },
            {
              "internalType": "address",
              "name": "voucher",
              "type": "address"
            },
            {
              "internalType": "uint256",
              "name": "value",
              "type": "uint256"
            },
            {
              "internalType": "address",
              "name": "paymentToken",
              "type": "address"
            },
            {
              "internalType": "uint256",
              "name": "totalPayment",
              "type": "uint256"
            },
            {
              "internalType": "uint128",
              "name": "nonce",
              "type": "uint128"
            },
            {
              "internalType": "uint128",
              "name": "expiry",
              "type": "uint128"
            }
          ],
          "internalType": "struct IPeriphery.TopUp",
          "name": "_invoice",
          "type": "tuple"
        },
        {
          "internalType": "bytes",
          "name": "_signature",
          "type": "bytes"
        }
      ],
      "name": "topup",
      "outputs": [],
      "stateMutability": "payable",
      "type": "function"
    },
    {
      "inputs": [
        {
          "internalType": "address",
          "name": "newOwner",
          "type": "address"
        }
      ],
      "name": "transferOwnership",
      "outputs": [],
      "stateMutability": "nonpayable",
      "type": "function"
    },
    {
      "inputs": [],
      "name": "treasury",
      "outputs": [
        {
          "internalType": "address",
          "name": "",
          "type": "address"
        }
      ],
      "stateMutability": "view",
      "type": "function"
    },
    {
      "inputs": [
        {
          "internalType": "address",
          "name": "_membership",
          "type": "address"
        },
        {
          "internalType": "address[]",
          "name": "_vouchers",
          "type": "address[]"
        },
        {
          "internalType": "bool",
          "name": "_isAdded",
          "type": "bool"
        }
      ],
      "name": "updateVouchers",
      "outputs": [],
      "stateMutability": "nonpayable",
      "type": "function"
    },
    {
      "inputs": [
        {
          "internalType": "address",
          "name": "_membership",
          "type": "address"
        },
        {
          "internalType": "uint256",
          "name": "_memberId",
          "type": "uint256"
        }
      ],
      "name": "upgradeTier",
      "outputs": [],
      "stateMutability": "nonpayable",
      "type": "function"
    },
    {
      "inputs": [
        {
          "internalType": "address",
          "name": "",
          "type": "address"
        }
      ],
      "name": "verifiers",
      "outputs": [
        {
          "internalType": "bool",
          "name": "",
          "type": "bool"
        }
      ],
      "stateMutability": "view",
      "type": "function"
    }
  ],
  "bytecode": "0x6101406040523480156200001257600080fd5b506040516200481c3803806200481c83398181016040528101906200003891906200038d565b6040518060400160405280601681526020017f4d656d6265727368697020616e64204c6f79616c7479000000000000000000008152506040518060400160405280600981526020017f56657273696f6e20310000000000000000000000000000000000000000000000815250818160008280519060200120905060008280519060200120905060007f8b73c3c69bb8fe3d512ecc4cf759cc79239f7b179b0ffacaa9a75d522b39400f90508260e081815250508161010081815250504660a081815250506200010f8184846200021b60201b60201c565b608081815250503073ffffffffffffffffffffffffffffffffffffffff1660c08173ffffffffffffffffffffffffffffffffffffffff1681525050806101208181525050505050505050506200017a6200016e6200025760201b60201c565b6200025f60201b60201c565b81600160006101000a81548173ffffffffffffffffffffffffffffffffffffffff021916908373ffffffffffffffffffffffffffffffffffffffff1602179055506001600560008373ffffffffffffffffffffffffffffffffffffffff1673ffffffffffffffffffffffffffffffffffffffff16815260200190815260200160002060006101000a81548160ff021916908315150217905550505062000478565b60008383834630604051602001620002389594939291906200041b565b6040516020818303038152906040528051906020012090509392505050565b600033905090565b60008060009054906101000a900473ffffffffffffffffffffffffffffffffffffffff169050816000806101000a81548173ffffffffffffffffffffffffffffffffffffffff021916908373ffffffffffffffffffffffffffffffffffffffff1602179055508173ffffffffffffffffffffffffffffffffffffffff168173ffffffffffffffffffffffffffffffffffffffff167f8be0079c531659141344cd1fd0a4f28419497f9722a3daafe3b4186f6b6457e060405160405180910390a35050565b600080fd5b600073ffffffffffffffffffffffffffffffffffffffff82169050919050565b6000620003558262000328565b9050919050565b620003678162000348565b81146200037357600080fd5b50565b60008151905062000387816200035c565b92915050565b60008060408385031215620003a757620003a662000323565b5b6000620003b78582860162000376565b9250506020620003ca8582860162000376565b9150509250929050565b6000819050919050565b620003e981620003d4565b82525050565b6000819050919050565b6200040481620003ef565b82525050565b620004158162000348565b82525050565b600060a082019050620004326000830188620003de565b620004416020830187620003de565b620004506040830186620003de565b6200045f6060830185620003f9565b6200046e60808301846200040a565b9695505050505050565b60805160a05160c05160e0516101005161012051614354620004c8600039600061267d015260006126bf0152600061269e015260006125d3015260006126290152600061265201526143546000f3fe6080604052600436106100fe5760003560e01c80638da5cb5b11610095578063ce36a5b811610064578063ce36a5b814610331578063d2c83d8a1461034d578063f1ec23cf14610369578063f2fde38b14610392578063fbfb5987146103bb576100fe565b80638da5cb5b14610277578063ab7a2c07146102a2578063b27f74b3146102cb578063bdfea0d614610308576100fe565b80636c824487116100d15780636c824487146101bd5780636e3d9154146101fa578063715018a6146102235780637ecebe001461023a576100fe565b806309af7d861461010357806337bafa5a1461014057806361d027b3146101695780636bf66bc314610194575b600080fd5b34801561010f57600080fd5b5061012a60048036038101906101259190612c2f565b6103e4565b6040516101379190612c6b565b60405180910390f35b34801561014c57600080fd5b5061016760048036038101906101629190612cbc565b61044d565b005b34801561017557600080fd5b5061017e6106cf565b60405161018b9190612c6b565b60405180910390f35b3480156101a057600080fd5b506101bb60048036038101906101b69190612d99565b6106f5565b005b3480156101c957600080fd5b506101e460048036038101906101df9190612c2f565b61093c565b6040516101f19190612e1c565b60405180910390f35b34801561020657600080fd5b50610221600480360381019061021c9190612c2f565b61095c565b005b34801561022f57600080fd5b50610238610aa4565b005b34801561024657600080fd5b50610261600480360381019061025c9190612c2f565b610ab8565b60405161026e9190612e46565b60405180910390f35b34801561028357600080fd5b5061028c610ad0565b6040516102999190612c6b565b60405180910390f35b3480156102ae57600080fd5b506102c960048036038101906102c49190612c2f565b610af9565b005b3480156102d757600080fd5b506102f260048036038101906102ed9190612c2f565b610c8e565b6040516102ff9190612e1c565b60405180910390f35b34801561031457600080fd5b5061032f600480360381019061032a9190612e61565b610cae565b005b61034b60048036038101906103469190612f3c565b610d61565b005b61036760048036038101906103629190612fbe565b610f18565b005b34801561037557600080fd5b50610390600480360381019061038b9190613020565b6110e8565b005b34801561039e57600080fd5b506103b960048036038101906103b49190612c2f565b6113da565b005b3480156103c757600080fd5b506103e260048036038101906103dd9190613092565b61145e565b005b6000600260008373ffffffffffffffffffffffffffffffffffffffff1673ffffffffffffffffffffffffffffffffffffffff16815260200190815260200160002060009054906101000a900473ffffffffffffffffffffffffffffffffffffffff169050919050565b6000610457611556565b9050600061046682858561155e565b9050600084905060008173ffffffffffffffffffffffffffffffffffffffff16637473c9a285876040518363ffffffff1660e01b81526004016104aa9291906130f3565b60206040518083038186803b1580156104c257600080fd5b505afa1580156104d6573d6000803e3d6000fd5b505050506040513d601f19601f820116820180604052508101906104fa9190613131565b905060008273ffffffffffffffffffffffffffffffffffffffff16633a03430886888773ffffffffffffffffffffffffffffffffffffffff166370a082318a6040518263ffffffff1660e01b81526004016105559190612c6b565b60206040518083038186803b15801561056d57600080fd5b505afa158015610581573d6000803e3d6000fd5b505050506040513d601f19601f820116820180604052508101906105a59190613131565b6040518463ffffffff1660e01b81526004016105c39392919061315e565b60206040518083038186803b1580156105db57600080fd5b505afa1580156105ef573d6000803e3d6000fd5b505050506040513d601f19601f820116820180604052508101906106139190613131565b9050818111610657576040517f08c379a000000000000000000000000000000000000000000000000000000000815260040161064e906131f2565b60405180910390fd5b8273ffffffffffffffffffffffffffffffffffffffff166350fa89428688846040518463ffffffff1660e01b81526004016106949392919061315e565b600060405180830381600087803b1580156106ae57600080fd5b505af11580156106c2573d6000803e3d6000fd5b5050505050505050505050565b600160009054906101000a900473ffffffffffffffffffffffffffffffffffffffff1681565b6106fd61172e565b83600460008273ffffffffffffffffffffffffffffffffffffffff1673ffffffffffffffffffffffffffffffffffffffff16815260200190815260200160002060009054906101000a900460ff1615801561078d5750600073ffffffffffffffffffffffffffffffffffffffff16610774826103e4565b73ffffffffffffffffffffffffffffffffffffffff1614155b6107cc576040517f08c379a00000000000000000000000000000000000000000000000000000000081526004016107c39061325e565b60405180910390fd5b60008484905090506000805b82811015610932578686828181106107f3576107f261327e565b5b90506020020160208101906108089190612c2f565b915084156108675761086182600360008b73ffffffffffffffffffffffffffffffffffffffff1673ffffffffffffffffffffffffffffffffffffffff1681526020019081526020016000206117ac90919063ffffffff16565b506108ba565b6108b882600360008b73ffffffffffffffffffffffffffffffffffffffff1673ffffffffffffffffffffffffffffffffffffffff1681526020019081526020016000206117dc90919063ffffffff16565b505b8173ffffffffffffffffffffffffffffffffffffffff168873ffffffffffffffffffffffffffffffffffffffff167fa3dc6f84978ec45c7aa4a93448811c5c607b9f815af61466a2bedeebdd9f7248876040516109179190612e1c565b60405180910390a3808061092a906132dc565b9150506107d8565b5050505050505050565b60056020528060005260406000206000915054906101000a900460ff1681565b61096461172e565b600460008273ffffffffffffffffffffffffffffffffffffffff1673ffffffffffffffffffffffffffffffffffffffff16815260200190815260200160002060009054906101000a900460ff166109f0576040517f08c379a00000000000000000000000000000000000000000000000000000000081526004016109e790613371565b60405180910390fd5b600460008273ffffffffffffffffffffffffffffffffffffffff1673ffffffffffffffffffffffffffffffffffffffff16815260200190815260200160002060006101000a81549060ff0219169055610a48816103e4565b73ffffffffffffffffffffffffffffffffffffffff168173ffffffffffffffffffffffffffffffffffffffff167f2ef82a929ca200bcfdf95dec72ea691570ae7f78d47534fb8a60ca19da7c61f060405160405180910390a350565b610aac61172e565b610ab6600061180c565b565b60066020528060005260406000206000915090505481565b60008060009054906101000a900473ffffffffffffffffffffffffffffffffffffffff16905090565b610b0161172e565b80600460008273ffffffffffffffffffffffffffffffffffffffff1673ffffffffffffffffffffffffffffffffffffffff16815260200190815260200160002060009054906101000a900460ff16158015610b915750600073ffffffffffffffffffffffffffffffffffffffff16610b78826103e4565b73ffffffffffffffffffffffffffffffffffffffff1614155b610bd0576040517f08c379a0000000000000000000000000000000000000000000000000000000008152600401610bc79061325e565b60405180910390fd5b6001600460008473ffffffffffffffffffffffffffffffffffffffff1673ffffffffffffffffffffffffffffffffffffffff16815260200190815260200160002060006101000a81548160ff021916908315150217905550610c31826103e4565b73ffffffffffffffffffffffffffffffffffffffff168273ffffffffffffffffffffffffffffffffffffffff167ff6f1d52d1692e0af84084c6bb2e415a100c41428f61b15106c6361cbf643736760405160405180910390a35050565b60046020528060005260406000206000915054906101000a900460ff1681565b610cb661172e565b600083839050905060005b81811015610d5a578260056000878785818110610ce157610ce061327e565b5b9050602002016020810190610cf69190612c2f565b73ffffffffffffffffffffffffffffffffffffffff1673ffffffffffffffffffffffffffffffffffffffff16815260200190815260200160002060006101000a81548160ff0219169083151502179055508080610d52906132dc565b915050610cc1565b5050505050565b6000610d6b611556565b9050610dc18185610100016020810190610d8591906133d9565b6fffffffffffffffffffffffffffffffff168660e0016020810190610daa91906133d9565b6fffffffffffffffffffffffffffffffff166118d0565b610df4846000016020810190610dd79190612c2f565b856020016020810190610dea9190612c2f565b866040013561155e565b50610e0181858585611999565b600073ffffffffffffffffffffffffffffffffffffffff168460a0016020810190610e2c9190612c2f565b73ffffffffffffffffffffffffffffffffffffffff161415610e8f578360c001353414610e8e576040517f08c379a0000000000000000000000000000000000000000000000000000000008152600401610e8590613452565b60405180910390fd5b5b610eb08460a0016020810190610ea59190612c2f565b828660c001356119b3565b610ede846020016020810190610ec69190612c2f565b856060016020810190610ed99190612c2f565b611a52565b610f1281856000016020810190610ef59190612c2f565b866060016020810190610f089190612c2f565b8760800135611ae6565b50505050565b6000610f22611556565b9050610f77818560e0016020810190610f3b91906133d9565b6fffffffffffffffffffffffffffffffff168660c0016020810190610f6091906133d9565b6fffffffffffffffffffffffffffffffff166118d0565b6000610fac856000016020810190610f8f9190612c2f565b866020016020810190610fa29190612c2f565b876040013561155e565b9050610fba82868686611bb1565b600073ffffffffffffffffffffffffffffffffffffffff16856060016020810190610fe59190612c2f565b73ffffffffffffffffffffffffffffffffffffffff161415611048578460a001353414611047576040517f08c379a000000000000000000000000000000000000000000000000000000000815260040161103e90613452565b60405180910390fd5b5b61106985606001602081019061105e9190612c2f565b838760a001356119b3565b600660008373ffffffffffffffffffffffffffffffffffffffff1673ffffffffffffffffffffffffffffffffffffffff16815260200190815260200160002060008154809291906110b9906132dc565b91905055506110e1818660000160208101906110d59190612c2f565b87608001356001611bcb565b5050505050565b6110f061172e565b600073ffffffffffffffffffffffffffffffffffffffff168373ffffffffffffffffffffffffffffffffffffffff161415801561115a5750600073ffffffffffffffffffffffffffffffffffffffff168273ffffffffffffffffffffffffffffffffffffffff1614155b611199576040517f08c379a0000000000000000000000000000000000000000000000000000000008152600401611190906134be565b60405180910390fd5b600073ffffffffffffffffffffffffffffffffffffffff166111ba846103e4565b73ffffffffffffffffffffffffffffffffffffffff1614611210576040517f08c379a00000000000000000000000000000000000000000000000000000000081526004016112079061352a565b60405180910390fd5b81600260008573ffffffffffffffffffffffffffffffffffffffff1673ffffffffffffffffffffffffffffffffffffffff16815260200190815260200160002060006101000a81548173ffffffffffffffffffffffffffffffffffffffff021916908373ffffffffffffffffffffffffffffffffffffffff160217905550600073ffffffffffffffffffffffffffffffffffffffff168173ffffffffffffffffffffffffffffffffffffffff161461137b5761131381600360008673ffffffffffffffffffffffffffffffffffffffff1673ffffffffffffffffffffffffffffffffffffffff1681526020019081526020016000206117ac90919063ffffffff16565b508073ffffffffffffffffffffffffffffffffffffffff168373ffffffffffffffffffffffffffffffffffffffff167fa3dc6f84978ec45c7aa4a93448811c5c607b9f815af61466a2bedeebdd9f724860016040516113729190612e1c565b60405180910390a35b8173ffffffffffffffffffffffffffffffffffffffff168373ffffffffffffffffffffffffffffffffffffffff167f2ef82a929ca200bcfdf95dec72ea691570ae7f78d47534fb8a60ca19da7c61f060405160405180910390a3505050565b6113e261172e565b600073ffffffffffffffffffffffffffffffffffffffff168173ffffffffffffffffffffffffffffffffffffffff161415611452576040517f08c379a0000000000000000000000000000000000000000000000000000000008152600401611449906135bc565b60405180910390fd5b61145b8161180c565b50565b6000611468611556565b90506114bd818560c001602081019061148191906133d9565b6fffffffffffffffffffffffffffffffff168660a00160208101906114a691906133d9565b6fffffffffffffffffffffffffffffffff166118d0565b60006114e0828660000160208101906114d69190612c2f565b876020013561155e565b90506114ee82868686611c40565b6114ff818387604001356000611bcb565b61152d8560000160208101906115159190612c2f565b8660600160208101906115289190612c2f565b611a52565b61154f82838760600160208101906115459190612c2f565b8860800135611ae6565b5050505050565b600033905090565b6000611569836103e4565b9050600073ffffffffffffffffffffffffffffffffffffffff168173ffffffffffffffffffffffffffffffffffffffff16141580156115f25750600460008473ffffffffffffffffffffffffffffffffffffffff1673ffffffffffffffffffffffffffffffffffffffff16815260200190815260200160002060009054906101000a900460ff16155b611631576040517f08c379a000000000000000000000000000000000000000000000000000000000815260040161162890613628565b60405180910390fd5b8373ffffffffffffffffffffffffffffffffffffffff168373ffffffffffffffffffffffffffffffffffffffff16636352211e846040518263ffffffff1660e01b81526004016116819190612e46565b60206040518083038186803b15801561169957600080fd5b505afa1580156116ad573d6000803e3d6000fd5b505050506040513d601f19601f820116820180604052508101906116d1919061365d565b73ffffffffffffffffffffffffffffffffffffffff1614611727576040517f08c379a000000000000000000000000000000000000000000000000000000000815260040161171e906136fc565b60405180910390fd5b9392505050565b611736611556565b73ffffffffffffffffffffffffffffffffffffffff16611754610ad0565b73ffffffffffffffffffffffffffffffffffffffff16146117aa576040517f08c379a00000000000000000000000000000000000000000000000000000000081526004016117a190613768565b60405180910390fd5b565b60006117d4836000018373ffffffffffffffffffffffffffffffffffffffff1660001b611c5a565b905092915050565b6000611804836000018373ffffffffffffffffffffffffffffffffffffffff1660001b611cca565b905092915050565b60008060009054906101000a900473ffffffffffffffffffffffffffffffffffffffff169050816000806101000a81548173ffffffffffffffffffffffffffffffffffffffff021916908373ffffffffffffffffffffffffffffffffffffffff1602179055508173ffffffffffffffffffffffffffffffffffffffff168173ffffffffffffffffffffffffffffffffffffffff167f8be0079c531659141344cd1fd0a4f28419497f9722a3daafe3b4186f6b6457e060405160405180910390a35050565b81421115611913576040517f08c379a000000000000000000000000000000000000000000000000000000000815260040161190a906137d4565b60405180910390fd5b600660008473ffffffffffffffffffffffffffffffffffffffff1673ffffffffffffffffffffffffffffffffffffffff168152602001908152602001600020548114611994576040517f08c379a000000000000000000000000000000000000000000000000000000000815260040161198b90613840565b60405180910390fd5b505050565b6119ad6119a885858585611dde565b611e9b565b50505050565b6000600160009054906101000a900473ffffffffffffffffffffffffffffffffffffffff169050600073ffffffffffffffffffffffffffffffffffffffff168473ffffffffffffffffffffffffffffffffffffffff161415611a1e57611a198183611f2a565b611a4c565b611a4b8382848773ffffffffffffffffffffffffffffffffffffffff1661201e909392919063ffffffff16565b5b50505050565b611aa381600360008573ffffffffffffffffffffffffffffffffffffffff1673ffffffffffffffffffffffffffffffffffffffff1681526020019081526020016000206120a790919063ffffffff16565b611ae2576040517f08c379a0000000000000000000000000000000000000000000000000000000008152600401611ad9906138ac565b60405180910390fd5b5050565b600660008573ffffffffffffffffffffffffffffffffffffffff1673ffffffffffffffffffffffffffffffffffffffff1681526020019081526020016000206000815480929190611b36906132dc565b91905055508173ffffffffffffffffffffffffffffffffffffffff16637d37eb9d848360016040518463ffffffff1660e01b8152600401611b79939291906138cc565b600060405180830381600087803b158015611b9357600080fd5b505af1158015611ba7573d6000803e3d6000fd5b5050505050505050565b611bc5611bc0858585856120d7565b611e9b565b50505050565b8373ffffffffffffffffffffffffffffffffffffffff166328a013678484846040518463ffffffff1660e01b8152600401611c08939291906138cc565b600060405180830381600087803b158015611c2257600080fd5b505af1158015611c36573d6000803e3d6000fd5b5050505050505050565b611c54611c4f85858585612194565b611e9b565b50505050565b6000611c668383612251565b611cbf578260000182908060018154018082558091505060019003906000526020600020016000909190919091505582600001805490508360010160008481526020019081526020016000208190555060019050611cc4565b600090505b92915050565b60008083600101600084815260200190815260200160002054905060008114611dd2576000600182611cfc9190613903565b9050600060018660000180549050611d149190613903565b9050818114611d83576000866000018281548110611d3557611d3461327e565b5b9060005260206000200154905080876000018481548110611d5957611d5861327e565b5b90600052602060002001819055508387600101600083815260200190815260200160002081905550505b85600001805480611d9757611d96613937565b5b600190038181906000526020600020016000905590558560010160008681526020019081526020016000206000905560019350505050611dd8565b60009150505b92915050565b6000611e9183838080601f016020809104026020016040519081016040528093929190818152602001838380828437600081840152601f19601f82011690508083019250505050505050611e837f07cd643c6ef499459a0abbff42ac63b0d03dfb4b3868069a3dc87d60076be9db88611e5689612274565b604051602001611e689392919061397f565b6040516020818303038152906040528051906020012061234f565b61236990919063ffffffff16565b9050949350505050565b600560008273ffffffffffffffffffffffffffffffffffffffff1673ffffffffffffffffffffffffffffffffffffffff16815260200190815260200160002060009054906101000a900460ff16611f27576040517f08c379a0000000000000000000000000000000000000000000000000000000008152600401611f1e90613a02565b60405180910390fd5b50565b80471015611f6d576040517f08c379a0000000000000000000000000000000000000000000000000000000008152600401611f6490613a6e565b60405180910390fd5b60008273ffffffffffffffffffffffffffffffffffffffff1682604051611f9390613abf565b60006040518083038185875af1925050503d8060008114611fd0576040519150601f19603f3d011682016040523d82523d6000602084013e611fd5565b606091505b5050905080612019576040517f08c379a000000000000000000000000000000000000000000000000000000000815260040161201090613b46565b60405180910390fd5b505050565b6120a1846323b872dd60e01b85858560405160240161203f93929190613b66565b604051602081830303815290604052907bffffffffffffffffffffffffffffffffffffffffffffffffffffffff19166020820180517bffffffffffffffffffffffffffffffffffffffffffffffffffffffff8381831617835250505050612390565b50505050565b60006120cf836000018373ffffffffffffffffffffffffffffffffffffffff1660001b612251565b905092915050565b600061218a83838080601f016020809104026020016040519081016040528093929190818152602001838380828437600081840152601f19601f8201169050808301925050505050505061217c7f08917af25ea1f7962b17c2e8e0162ba6e8d8a2851605d7dfab0997973a0a1c538861214f89612457565b6040516020016121619392919061397f565b6040516020818303038152906040528051906020012061234f565b61236990919063ffffffff16565b9050949350505050565b600061224783838080601f016020809104026020016040519081016040528093929190818152602001838380828437600081840152601f19601f820116905080830192505050505050506122397f92997c191d098a1729f81748d1d34da63045d7751585942e3e8fbe20f3e8e0458861220c8961251d565b60405160200161221e9392919061397f565b6040516020818303038152906040528051906020012061234f565b61236990919063ffffffff16565b9050949350505050565b600080836001016000848152602001908152602001600020541415905092915050565b60007f07645fc09bdfd4a87ca22cb5b77d9483e01f029e8522513b1c3a1fb7d5d6e92b8260000160208101906122aa9190612c2f565b8360200160208101906122bd9190612c2f565b84604001358560600160208101906122d59190612c2f565b86608001358760a00160208101906122ed9190612c2f565b8860c001358960e001602081019061230591906133d9565b8a61010001602081019061231991906133d9565b6040516020016123329a99989796959493929190613bac565b604051602081830303815290604052805190602001209050919050565b600061236261235c6125cf565b836126e9565b9050919050565b6000806000612378858561271c565b915091506123858161276e565b819250505092915050565b60006123f2826040518060400160405280602081526020017f5361666545524332303a206c6f772d6c6576656c2063616c6c206661696c65648152508573ffffffffffffffffffffffffffffffffffffffff166128dc9092919063ffffffff16565b905060008151111561245257808060200190518101906124129190613c5d565b612451576040517f08c379a000000000000000000000000000000000000000000000000000000000815260040161244890613cfc565b60405180910390fd5b5b505050565b60007f5466339a37ac2c50ff55d404e4b45c46f3fb2a75de6510d5da1f926bd8543e5d82600001602081019061248d9190612c2f565b8360200160208101906124a09190612c2f565b84604001358560600160208101906124b89190612c2f565b86608001358760a001358860c00160208101906124d591906133d9565b8960e00160208101906124e891906133d9565b60405160200161250099989796959493929190613d1c565b604051602081830303815290604052805190602001209050919050565b60007fd18120b3c7a5e5dc9787ce64e906368c973e03b3a00c2fa957bfa4703a7a34808260000160208101906125539190612c2f565b836020013584604001358560600160208101906125709190612c2f565b86608001358760a001602081019061258891906133d9565b8860c001602081019061259b91906133d9565b6040516020016125b2989796959493929190613da9565b604051602081830303815290604052805190602001209050919050565b60007f000000000000000000000000000000000000000000000000000000000000000073ffffffffffffffffffffffffffffffffffffffff163073ffffffffffffffffffffffffffffffffffffffff1614801561264b57507f000000000000000000000000000000000000000000000000000000000000000046145b15612678577f000000000000000000000000000000000000000000000000000000000000000090506126e6565b6126e37f00000000000000000000000000000000000000000000000000000000000000007f00000000000000000000000000000000000000000000000000000000000000007f00000000000000000000000000000000000000000000000000000000000000006128f4565b90505b90565b600082826040516020016126fe929190613e9f565b60405160208183030381529060405280519060200120905092915050565b60008060418351141561275e5760008060006020860151925060408601519150606086015160001a90506127528782858561292e565b94509450505050612767565b60006002915091505b9250929050565b6000600481111561278257612781613ed6565b5b81600481111561279557612794613ed6565b5b14156127a0576128d9565b600160048111156127b4576127b3613ed6565b5b8160048111156127c7576127c6613ed6565b5b1415612808576040517f08c379a00000000000000000000000000000000000000000000000000000000081526004016127ff90613f51565b60405180910390fd5b6002600481111561281c5761281b613ed6565b5b81600481111561282f5761282e613ed6565b5b1415612870576040517f08c379a000000000000000000000000000000000000000000000000000000000815260040161286790613fbd565b60405180910390fd5b6003600481111561288457612883613ed6565b5b81600481111561289757612896613ed6565b5b14156128d8576040517f08c379a00000000000000000000000000000000000000000000000000000000081526004016128cf9061404f565b60405180910390fd5b5b50565b60606128eb8484600085612a11565b90509392505050565b6000838383463060405160200161290f95949392919061406f565b6040516020818303038152906040528051906020012090509392505050565b6000807f7fffffffffffffffffffffffffffffff5d576e7357a4501ddfe92f46681b20a08360001c1115612969576000600391509150612a08565b60006001878787876040516000815260200160405260405161298e94939291906140de565b6020604051602081039080840390855afa1580156129b0573d6000803e3d6000fd5b505050602060405103519050600073ffffffffffffffffffffffffffffffffffffffff168173ffffffffffffffffffffffffffffffffffffffff1614156129ff57600060019250925050612a08565b80600092509250505b94509492505050565b606082471015612a56576040517f08c379a0000000000000000000000000000000000000000000000000000000008152600401612a4d90614195565b60405180910390fd5b6000808673ffffffffffffffffffffffffffffffffffffffff168587604051612a7f9190614224565b60006040518083038185875af1925050503d8060008114612abc576040519150601f19603f3d011682016040523d82523d6000602084013e612ac1565b606091505b5091509150612ad287838387612ade565b92505050949350505050565b60608315612b4157600083511415612b3957612af985612b54565b612b38576040517f08c379a0000000000000000000000000000000000000000000000000000000008152600401612b2f90614287565b60405180910390fd5b5b829050612b4c565b612b4b8383612b77565b5b949350505050565b6000808273ffffffffffffffffffffffffffffffffffffffff163b119050919050565b600082511115612b8a5781518083602001fd5b806040517f08c379a0000000000000000000000000000000000000000000000000000000008152600401612bbe91906142fc565b60405180910390fd5b600080fd5b600080fd5b600073ffffffffffffffffffffffffffffffffffffffff82169050919050565b6000612bfc82612bd1565b9050919050565b612c0c81612bf1565b8114612c1757600080fd5b50565b600081359050612c2981612c03565b92915050565b600060208284031215612c4557612c44612bc7565b5b6000612c5384828501612c1a565b91505092915050565b612c6581612bf1565b82525050565b6000602082019050612c806000830184612c5c565b92915050565b6000819050919050565b612c9981612c86565b8114612ca457600080fd5b50565b600081359050612cb681612c90565b92915050565b60008060408385031215612cd357612cd2612bc7565b5b6000612ce185828601612c1a565b9250506020612cf285828601612ca7565b9150509250929050565b600080fd5b600080fd5b600080fd5b60008083601f840112612d2157612d20612cfc565b5b8235905067ffffffffffffffff811115612d3e57612d3d612d01565b5b602083019150836020820283011115612d5a57612d59612d06565b5b9250929050565b60008115159050919050565b612d7681612d61565b8114612d8157600080fd5b50565b600081359050612d9381612d6d565b92915050565b60008060008060608587031215612db357612db2612bc7565b5b6000612dc187828801612c1a565b945050602085013567ffffffffffffffff811115612de257612de1612bcc565b5b612dee87828801612d0b565b93509350506040612e0187828801612d84565b91505092959194509250565b612e1681612d61565b82525050565b6000602082019050612e316000830184612e0d565b92915050565b612e4081612c86565b82525050565b6000602082019050612e5b6000830184612e37565b92915050565b600080600060408486031215612e7a57612e79612bc7565b5b600084013567ffffffffffffffff811115612e9857612e97612bcc565b5b612ea486828701612d0b565b93509350506020612eb786828701612d84565b9150509250925092565b600080fd5b60006101208284031215612edd57612edc612ec1565b5b81905092915050565b60008083601f840112612efc57612efb612cfc565b5b8235905067ffffffffffffffff811115612f1957612f18612d01565b5b602083019150836001820283011115612f3557612f34612d06565b5b9250929050565b60008060006101408486031215612f5657612f55612bc7565b5b6000612f6486828701612ec6565b93505061012084013567ffffffffffffffff811115612f8657612f85612bcc565b5b612f9286828701612ee6565b92509250509250925092565b60006101008284031215612fb557612fb4612ec1565b5b81905092915050565b60008060006101208486031215612fd857612fd7612bc7565b5b6000612fe686828701612f9e565b93505061010084013567ffffffffffffffff81111561300857613007612bcc565b5b61301486828701612ee6565b92509250509250925092565b60008060006060848603121561303957613038612bc7565b5b600061304786828701612c1a565b935050602061305886828701612c1a565b925050604061306986828701612c1a565b9150509250925092565b600060e0828403121561308957613088612ec1565b5b81905092915050565b600080600061010084860312156130ac576130ab612bc7565b5b60006130ba86828701613073565b93505060e084013567ffffffffffffffff8111156130db576130da612bcc565b5b6130e786828701612ee6565b92509250509250925092565b60006040820190506131086000830185612c5c565b6131156020830184612e37565b9392505050565b60008151905061312b81612c90565b92915050565b60006020828403121561314757613146612bc7565b5b60006131558482850161311c565b91505092915050565b60006060820190506131736000830186612c5c565b6131806020830185612e37565b61318d6040830184612e37565b949350505050565b600082825260208201905092915050565b7f4e6f7420656e6f75676820706f696e747320746f207570677261646500000000600082015250565b60006131dc601c83613195565b91506131e7826131a6565b602082019050919050565b6000602082019050818103600083015261320b816131cf565b9050919050565b7f556e61626c6520746f2064697361626c65000000000000000000000000000000600082015250565b6000613248601183613195565b915061325382613212565b602082019050919050565b600060208201905081810360008301526132778161323b565b9050919050565b7f4e487b7100000000000000000000000000000000000000000000000000000000600052603260045260246000fd5b7f4e487b7100000000000000000000000000000000000000000000000000000000600052601160045260246000fd5b60006132e782612c86565b91507fffffffffffffffffffffffffffffffffffffffffffffffffffffffffffffffff82141561331a576133196132ad565b5b600182019050919050565b7f556e61626c6520746f20656e61626c6500000000000000000000000000000000600082015250565b600061335b601083613195565b915061336682613325565b602082019050919050565b6000602082019050818103600083015261338a8161334e565b9050919050565b60006fffffffffffffffffffffffffffffffff82169050919050565b6133b681613391565b81146133c157600080fd5b50565b6000813590506133d3816133ad565b92915050565b6000602082840312156133ef576133ee612bc7565b5b60006133fd848285016133c4565b91505092915050565b7f496e76616c6964207061796d656e740000000000000000000000000000000000600082015250565b600061343c600f83613195565b915061344782613406565b602082019050919050565b6000602082019050818103600083015261346b8161342f565b9050919050565b7f5a65726f20416464726573730000000000000000000000000000000000000000600082015250565b60006134a8600c83613195565b91506134b382613472565b602082019050919050565b600060208201905081810360008301526134d78161349b565b9050919050565b7f4d656d6265727368697020616c72656164792070616972656400000000000000600082015250565b6000613514601983613195565b915061351f826134de565b602082019050919050565b6000602082019050818103600083015261354381613507565b9050919050565b7f4f776e61626c653a206e6577206f776e657220697320746865207a65726f206160008201527f6464726573730000000000000000000000000000000000000000000000000000602082015250565b60006135a6602683613195565b91506135b18261354a565b604082019050919050565b600060208201905081810360008301526135d581613599565b9050919050565b7f556e737570706f72742074686973206d656d6265727368697020747970650000600082015250565b6000613612601e83613195565b915061361d826135dc565b602082019050919050565b6000602082019050818103600083015261364181613605565b9050919050565b60008151905061365781612c03565b92915050565b60006020828403121561367357613672612bc7565b5b600061368184828501613648565b91505092915050565b7f42656e656669636961727920616e64206d656d6265724964206e6f74206d617460008201527f6368000000000000000000000000000000000000000000000000000000000000602082015250565b60006136e6602283613195565b91506136f18261368a565b604082019050919050565b60006020820190508181036000830152613715816136d9565b9050919050565b7f4f776e61626c653a2063616c6c6572206973206e6f7420746865206f776e6572600082015250565b6000613752602083613195565b915061375d8261371c565b602082019050919050565b6000602082019050818103600083015261378181613745565b9050919050565b7f5369676e61747572652069732065787069726564000000000000000000000000600082015250565b60006137be601483613195565b91506137c982613788565b602082019050919050565b600060208201905081810360008301526137ed816137b1565b9050919050565b7f496e76616c6964206e6f6e636500000000000000000000000000000000000000600082015250565b600061382a600d83613195565b9150613835826137f4565b602082019050919050565b600060208201905081810360008301526138598161381d565b9050919050565b7f556e737570706f7274207468697320766f756368657220747970650000000000600082015250565b6000613896601b83613195565b91506138a182613860565b602082019050919050565b600060208201905081810360008301526138c581613889565b9050919050565b60006060820190506138e16000830186612c5c565b6138ee6020830185612e37565b6138fb6040830184612e0d565b949350505050565b600061390e82612c86565b915061391983612c86565b92508282101561392c5761392b6132ad565b5b828203905092915050565b7f4e487b7100000000000000000000000000000000000000000000000000000000600052603160045260246000fd5b6000819050919050565b61397981613966565b82525050565b60006060820190506139946000830186613970565b6139a16020830185612c5c565b6139ae6040830184613970565b949350505050565b7f556e617574686f72697a6564207369676e617475726500000000000000000000600082015250565b60006139ec601683613195565b91506139f7826139b6565b602082019050919050565b60006020820190508181036000830152613a1b816139df565b9050919050565b7f416464726573733a20696e73756666696369656e742062616c616e6365000000600082015250565b6000613a58601d83613195565b9150613a6382613a22565b602082019050919050565b60006020820190508181036000830152613a8781613a4b565b9050919050565b600081905092915050565b50565b6000613aa9600083613a8e565b9150613ab482613a99565b600082019050919050565b6000613aca82613a9c565b9150819050919050565b7f416464726573733a20756e61626c6520746f2073656e642076616c75652c207260008201527f6563697069656e74206d61792068617665207265766572746564000000000000602082015250565b6000613b30603a83613195565b9150613b3b82613ad4565b604082019050919050565b60006020820190508181036000830152613b5f81613b23565b9050919050565b6000606082019050613b7b6000830186612c5c565b613b886020830185612c5c565b613b956040830184612e37565b949350505050565b613ba681613391565b82525050565b600061014082019050613bc2600083018d613970565b613bcf602083018c612c5c565b613bdc604083018b612c5c565b613be9606083018a612e37565b613bf66080830189612c5c565b613c0360a0830188612e37565b613c1060c0830187612c5c565b613c1d60e0830186612e37565b613c2b610100830185613b9d565b613c39610120830184613b9d565b9b9a5050505050505050505050565b600081519050613c5781612d6d565b92915050565b600060208284031215613c7357613c72612bc7565b5b6000613c8184828501613c48565b91505092915050565b7f5361666545524332303a204552433230206f7065726174696f6e20646964206e60008201527f6f74207375636365656400000000000000000000000000000000000000000000602082015250565b6000613ce6602a83613195565b9150613cf182613c8a565b604082019050919050565b60006020820190508181036000830152613d1581613cd9565b9050919050565b600061012082019050613d32600083018c613970565b613d3f602083018b612c5c565b613d4c604083018a612c5c565b613d596060830189612e37565b613d666080830188612c5c565b613d7360a0830187612e37565b613d8060c0830186612e37565b613d8d60e0830185613b9d565b613d9b610100830184613b9d565b9a9950505050505050505050565b600061010082019050613dbf600083018b613970565b613dcc602083018a612c5c565b613dd96040830189612e37565b613de66060830188612e37565b613df36080830187612c5c565b613e0060a0830186612e37565b613e0d60c0830185613b9d565b613e1a60e0830184613b9d565b9998505050505050505050565b600081905092915050565b7f1901000000000000000000000000000000000000000000000000000000000000600082015250565b6000613e68600283613e27565b9150613e7382613e32565b600282019050919050565b6000819050919050565b613e99613e9482613966565b613e7e565b82525050565b6000613eaa82613e5b565b9150613eb68285613e88565b602082019150613ec68284613e88565b6020820191508190509392505050565b7f4e487b7100000000000000000000000000000000000000000000000000000000600052602160045260246000fd5b7f45434453413a20696e76616c6964207369676e61747572650000000000000000600082015250565b6000613f3b601883613195565b9150613f4682613f05565b602082019050919050565b60006020820190508181036000830152613f6a81613f2e565b9050919050565b7f45434453413a20696e76616c6964207369676e6174757265206c656e67746800600082015250565b6000613fa7601f83613195565b9150613fb282613f71565b602082019050919050565b60006020820190508181036000830152613fd681613f9a565b9050919050565b7f45434453413a20696e76616c6964207369676e6174757265202773272076616c60008201527f7565000000000000000000000000000000000000000000000000000000000000602082015250565b6000614039602283613195565b915061404482613fdd565b604082019050919050565b600060208201905081810360008301526140688161402c565b9050919050565b600060a0820190506140846000830188613970565b6140916020830187613970565b61409e6040830186613970565b6140ab6060830185612e37565b6140b86080830184612c5c565b9695505050505050565b600060ff82169050919050565b6140d8816140c2565b82525050565b60006080820190506140f36000830187613970565b61410060208301866140cf565b61410d6040830185613970565b61411a6060830184613970565b95945050505050565b7f416464726573733a20696e73756666696369656e742062616c616e636520666f60008201527f722063616c6c0000000000000000000000000000000000000000000000000000602082015250565b600061417f602683613195565b915061418a82614123565b604082019050919050565b600060208201905081810360008301526141ae81614172565b9050919050565b600081519050919050565b60005b838110156141de5780820151818401526020810190506141c3565b838111156141ed576000848401525b50505050565b60006141fe826141b5565b6142088185613a8e565b93506142188185602086016141c0565b80840191505092915050565b600061423082846141f3565b915081905092915050565b7f416464726573733a2063616c6c20746f206e6f6e2d636f6e7472616374000000600082015250565b6000614271601d83613195565b915061427c8261423b565b602082019050919050565b600060208201905081810360008301526142a081614264565b9050919050565b600081519050919050565b6000601f19601f8301169050919050565b60006142ce826142a7565b6142d88185613195565b93506142e88185602086016141c0565b6142f1816142b2565b840191505092915050565b6000602082019050818103600083015261431681846142c3565b90509291505056fea2646970667358221220abf72642cf938afc7de68eab80193640b82490d7b84a561e3df582abe056cd2164736f6c63430008090033",
  "linkReferences": {},
  "deployedLinkReferences": {}
}